{
  "_format": "hh-sol-artifact-1",
  "contractName": "NftToken",
  "sourceName": "eth/contracts/NftToken.sol",
  "abi": [
    {
      "inputs": [
        {
          "internalType": "address",
          "name": "_governance",
          "type": "address"
        },
        {
          "internalType": "string",
          "name": "name",
          "type": "string"
        },
        {
          "internalType": "string",
          "name": "symbol",
          "type": "string"
        },
        {
          "internalType": "bool",
          "name": "_tradable",
          "type": "bool"
        },
        {
          "internalType": "enum NftToken.TokenType",
          "name": "_tokenType",
          "type": "uint8"
        },
        {
          "internalType": "address",
          "name": "initialRoyaltiesReceiver",
          "type": "address"
        },
        {
          "internalType": "string",
          "name": "_hash",
          "type": "string"
        },
        {
          "internalType": "address",
          "name": "_parentToken",
          "type": "address"
        }
      ],
      "stateMutability": "nonpayable",
      "type": "constructor"
    },
    {
      "anonymous": false,
      "inputs": [
        {
          "indexed": true,
          "internalType": "address",
          "name": "owner",
          "type": "address"
        },
        {
          "indexed": true,
          "internalType": "address",
          "name": "approved",
          "type": "address"
        },
        {
          "indexed": true,
          "internalType": "uint256",
          "name": "tokenId",
          "type": "uint256"
        }
      ],
      "name": "Approval",
      "type": "event"
    },
    {
      "anonymous": false,
      "inputs": [
        {
          "indexed": true,
          "internalType": "address",
          "name": "owner",
          "type": "address"
        },
        {
          "indexed": true,
          "internalType": "address",
          "name": "operator",
          "type": "address"
        },
        {
          "indexed": false,
          "internalType": "bool",
          "name": "approved",
          "type": "bool"
        }
      ],
      "name": "ApprovalForAll",
      "type": "event"
    },
    {
      "anonymous": false,
      "inputs": [
        {
          "indexed": false,
          "internalType": "uint256",
          "name": "_fromTokenId",
          "type": "uint256"
        },
        {
          "indexed": false,
          "internalType": "uint256",
          "name": "_toTokenId",
          "type": "uint256"
        }
      ],
      "name": "BatchMetadataUpdate",
      "type": "event"
    },
    {
      "anonymous": false,
      "inputs": [
        {
          "indexed": false,
          "internalType": "uint256",
          "name": "_tokenId",
          "type": "uint256"
        }
      ],
      "name": "MetadataUpdate",
      "type": "event"
    },
    {
      "anonymous": false,
      "inputs": [
        {
          "indexed": false,
          "internalType": "uint256",
          "name": "tokenId",
          "type": "uint256"
        },
        {
          "indexed": false,
          "internalType": "address",
          "name": "recipient",
          "type": "address"
        }
      ],
      "name": "Mint",
      "type": "event"
    },
    {
      "anonymous": false,
      "inputs": [
        {
          "indexed": true,
          "internalType": "address",
          "name": "previousOwner",
          "type": "address"
        },
        {
          "indexed": true,
          "internalType": "address",
          "name": "newOwner",
          "type": "address"
        }
      ],
      "name": "OwnershipTransferred",
      "type": "event"
    },
    {
      "anonymous": false,
      "inputs": [
        {
          "indexed": true,
          "internalType": "address",
          "name": "from",
          "type": "address"
        },
        {
          "indexed": true,
          "internalType": "address",
          "name": "to",
          "type": "address"
        },
        {
          "indexed": true,
          "internalType": "uint256",
          "name": "tokenId",
          "type": "uint256"
        }
      ],
      "name": "Transfer",
      "type": "event"
    },
    {
      "inputs": [],
      "name": "MAX_SUPPLY",
      "outputs": [
        {
          "internalType": "uint256",
          "name": "",
          "type": "uint256"
        }
      ],
      "stateMutability": "view",
      "type": "function"
    },
    {
      "inputs": [
        {
          "internalType": "address",
          "name": "to",
          "type": "address"
        },
        {
          "internalType": "uint256",
          "name": "tokenId",
          "type": "uint256"
        }
      ],
      "name": "approve",
      "outputs": [],
      "stateMutability": "nonpayable",
      "type": "function"
    },
    {
      "inputs": [
        {
          "internalType": "uint256",
          "name": "",
          "type": "uint256"
        }
      ],
      "name": "assets",
      "outputs": [
        {
          "internalType": "string",
          "name": "",
          "type": "string"
        }
      ],
      "stateMutability": "view",
      "type": "function"
    },
    {
      "inputs": [
        {
          "internalType": "address",
          "name": "owner",
          "type": "address"
        }
      ],
      "name": "balanceOf",
      "outputs": [
        {
          "internalType": "uint256",
          "name": "",
          "type": "uint256"
        }
      ],
      "stateMutability": "view",
      "type": "function"
    },
    {
      "inputs": [
        {
          "internalType": "uint256",
          "name": "count",
          "type": "uint256"
        },
        {
          "internalType": "address",
          "name": "recipient",
          "type": "address"
        }
      ],
      "name": "batchMint",
      "outputs": [
        {
          "internalType": "uint256",
          "name": "tokenId",
          "type": "uint256"
        }
      ],
      "stateMutability": "nonpayable",
      "type": "function"
    },
    {
      "inputs": [],
      "name": "contractURI",
      "outputs": [
        {
          "internalType": "string",
          "name": "",
          "type": "string"
        }
      ],
      "stateMutability": "view",
      "type": "function"
    },
    {
      "inputs": [
        {
          "internalType": "uint256",
          "name": "tokenId",
          "type": "uint256"
        }
      ],
      "name": "getApproved",
      "outputs": [
        {
          "internalType": "address",
          "name": "",
          "type": "address"
        }
      ],
      "stateMutability": "view",
      "type": "function"
    },
    {
      "inputs": [],
      "name": "governance",
      "outputs": [
        {
          "internalType": "address",
          "name": "",
          "type": "address"
        }
      ],
      "stateMutability": "view",
      "type": "function"
    },
    {
      "inputs": [
        {
          "internalType": "address",
          "name": "owner",
          "type": "address"
        },
        {
          "internalType": "address",
          "name": "operator",
          "type": "address"
        }
      ],
      "name": "isApprovedForAll",
      "outputs": [
        {
          "internalType": "bool",
          "name": "",
          "type": "bool"
        }
      ],
      "stateMutability": "view",
      "type": "function"
    },
    {
      "inputs": [
        {
          "internalType": "address",
          "name": "recipient",
          "type": "address"
        },
        {
          "internalType": "string",
          "name": "_assets",
          "type": "string"
        }
      ],
      "name": "mint",
      "outputs": [
        {
          "internalType": "uint256",
          "name": "tokenId",
          "type": "uint256"
        }
      ],
      "stateMutability": "nonpayable",
      "type": "function"
    },
    {
      "inputs": [],
      "name": "name",
      "outputs": [
        {
          "internalType": "string",
          "name": "",
          "type": "string"
        }
      ],
      "stateMutability": "view",
      "type": "function"
    },
    {
      "inputs": [],
      "name": "owner",
      "outputs": [
        {
          "internalType": "address",
          "name": "",
          "type": "address"
        }
      ],
      "stateMutability": "view",
      "type": "function"
    },
    {
      "inputs": [
        {
          "internalType": "uint256",
          "name": "tokenId",
          "type": "uint256"
        }
      ],
      "name": "ownerOf",
      "outputs": [
        {
          "internalType": "address",
          "name": "",
          "type": "address"
        }
      ],
      "stateMutability": "view",
      "type": "function"
    },
    {
      "inputs": [],
      "name": "parentToken",
      "outputs": [
        {
          "internalType": "address",
          "name": "",
          "type": "address"
        }
      ],
      "stateMutability": "view",
      "type": "function"
    },
    {
      "inputs": [],
      "name": "renounceOwnership",
      "outputs": [],
      "stateMutability": "nonpayable",
      "type": "function"
    },
    {
      "inputs": [],
      "name": "royaltiesPercentage",
      "outputs": [
        {
          "internalType": "uint256",
          "name": "",
          "type": "uint256"
        }
      ],
      "stateMutability": "view",
      "type": "function"
    },
    {
      "inputs": [],
      "name": "royaltiesReceiver",
      "outputs": [
        {
          "internalType": "address",
          "name": "",
          "type": "address"
        }
      ],
      "stateMutability": "view",
      "type": "function"
    },
    {
      "inputs": [
        {
          "internalType": "uint256",
          "name": "_tokenId",
          "type": "uint256"
        },
        {
          "internalType": "uint256",
          "name": "_salePrice",
          "type": "uint256"
        }
      ],
      "name": "royaltyInfo",
      "outputs": [
        {
          "internalType": "address",
          "name": "receiver",
          "type": "address"
        },
        {
          "internalType": "uint256",
          "name": "royaltyAmount",
          "type": "uint256"
        }
      ],
      "stateMutability": "view",
      "type": "function"
    },
    {
      "inputs": [
        {
          "internalType": "address",
          "name": "from",
          "type": "address"
        },
        {
          "internalType": "address",
          "name": "to",
          "type": "address"
        },
        {
          "internalType": "uint256",
          "name": "tokenId",
          "type": "uint256"
        }
      ],
      "name": "safeTransferFrom",
      "outputs": [],
      "stateMutability": "nonpayable",
      "type": "function"
    },
    {
      "inputs": [
        {
          "internalType": "address",
          "name": "from",
          "type": "address"
        },
        {
          "internalType": "address",
          "name": "to",
          "type": "address"
        },
        {
          "internalType": "uint256",
          "name": "tokenId",
          "type": "uint256"
        },
        {
          "internalType": "bytes",
          "name": "data",
          "type": "bytes"
        }
      ],
      "name": "safeTransferFrom",
      "outputs": [],
      "stateMutability": "nonpayable",
      "type": "function"
    },
    {
      "inputs": [
        {
          "internalType": "address",
          "name": "operator",
          "type": "address"
        },
        {
          "internalType": "bool",
          "name": "approved",
          "type": "bool"
        }
      ],
      "name": "setApprovalForAll",
      "outputs": [],
      "stateMutability": "nonpayable",
      "type": "function"
    },
    {
      "inputs": [
        {
          "internalType": "string",
          "name": "_newContractURI",
          "type": "string"
        }
      ],
      "name": "setContractURI",
      "outputs": [],
      "stateMutability": "nonpayable",
      "type": "function"
    },
    {
      "inputs": [
        {
          "internalType": "address",
          "name": "newRoyaltiesReceiver",
          "type": "address"
        }
      ],
      "name": "setRoyaltiesReceiver",
      "outputs": [],
      "stateMutability": "nonpayable",
      "type": "function"
    },
    {
      "inputs": [
        {
          "internalType": "bytes4",
          "name": "interfaceId",
          "type": "bytes4"
        }
      ],
      "name": "supportsInterface",
      "outputs": [
        {
          "internalType": "bool",
          "name": "",
          "type": "bool"
        }
      ],
      "stateMutability": "view",
      "type": "function"
    },
    {
      "inputs": [],
      "name": "symbol",
      "outputs": [
        {
          "internalType": "string",
          "name": "",
          "type": "string"
        }
      ],
      "stateMutability": "view",
      "type": "function"
    },
    {
      "inputs": [
        {
          "internalType": "uint256",
          "name": "index",
          "type": "uint256"
        }
      ],
      "name": "tokenByIndex",
      "outputs": [
        {
          "internalType": "uint256",
          "name": "",
          "type": "uint256"
        }
      ],
      "stateMutability": "view",
      "type": "function"
    },
    {
      "inputs": [
        {
          "internalType": "address",
          "name": "owner",
          "type": "address"
        },
        {
          "internalType": "uint256",
          "name": "index",
          "type": "uint256"
        }
      ],
      "name": "tokenOfOwnerByIndex",
      "outputs": [
        {
          "internalType": "uint256",
          "name": "",
          "type": "uint256"
        }
      ],
      "stateMutability": "view",
      "type": "function"
    },
    {
      "inputs": [],
      "name": "tokenType",
      "outputs": [
        {
          "internalType": "enum NftToken.TokenType",
          "name": "",
          "type": "uint8"
        }
      ],
      "stateMutability": "view",
      "type": "function"
    },
    {
      "inputs": [
        {
          "internalType": "uint256",
          "name": "tokenId",
          "type": "uint256"
        }
      ],
      "name": "tokenURI",
      "outputs": [
        {
          "internalType": "string",
          "name": "",
          "type": "string"
        }
      ],
      "stateMutability": "view",
      "type": "function"
    },
    {
      "inputs": [],
      "name": "totalSupply",
      "outputs": [
        {
          "internalType": "uint256",
          "name": "",
          "type": "uint256"
        }
      ],
      "stateMutability": "view",
      "type": "function"
    },
    {
      "inputs": [],
      "name": "tradable",
      "outputs": [
        {
          "internalType": "bool",
          "name": "",
          "type": "bool"
        }
      ],
      "stateMutability": "view",
      "type": "function"
    },
    {
      "inputs": [
        {
          "internalType": "address",
          "name": "from",
          "type": "address"
        },
        {
          "internalType": "address",
          "name": "to",
          "type": "address"
        },
        {
          "internalType": "uint256",
          "name": "tokenId",
          "type": "uint256"
        }
      ],
      "name": "transferFrom",
      "outputs": [],
      "stateMutability": "nonpayable",
      "type": "function"
    },
    {
      "inputs": [
        {
          "internalType": "address",
          "name": "newOwner",
          "type": "address"
        }
      ],
      "name": "transferOwnership",
      "outputs": [],
      "stateMutability": "nonpayable",
      "type": "function"
    },
    {
      "inputs": [
        {
          "internalType": "uint256",
          "name": "_tokenId",
          "type": "uint256"
        },
        {
          "internalType": "string",
          "name": "_assets",
          "type": "string"
        }
      ],
      "name": "updateAssets",
      "outputs": [],
      "stateMutability": "nonpayable",
      "type": "function"
    },
    {
      "inputs": [
        {
          "internalType": "bool",
          "name": "_tradable",
          "type": "bool"
        }
      ],
      "name": "updateTradable",
      "outputs": [],
      "stateMutability": "nonpayable",
      "type": "function"
    }
  ],
  "bytecode": "0x60806040523480156200001157600080fd5b506040516200510c3803806200510c8339818101604052810190620000379190620005c0565b8686620000596200004d620001f560201b60201c565b620001fd60201b60201c565b81600190805190602001906200007192919062000459565b5080600290805190602001906200008a92919062000459565b50505087600c60006101000a81548173ffffffffffffffffffffffffffffffffffffffff021916908373ffffffffffffffffffffffffffffffffffffffff160217905550620000e1886001620002c160201b60201c565b84600c60146101000a81548160ff02191690831515021790555083601060146101000a81548160ff0219169083600281111562000147577f4e487b7100000000000000000000000000000000000000000000000000000000600052602160045260246000fd5b021790555082600f60006101000a81548173ffffffffffffffffffffffffffffffffffffffff021916908373ffffffffffffffffffffffffffffffffffffffff16021790555081600d9080519060200190620001a592919062000459565b5080601060006101000a81548173ffffffffffffffffffffffffffffffffffffffff021916908373ffffffffffffffffffffffffffffffffffffffff160217905550505050505050505062000974565b600033905090565b60008060009054906101000a900473ffffffffffffffffffffffffffffffffffffffff169050816000806101000a81548173ffffffffffffffffffffffffffffffffffffffff021916908373ffffffffffffffffffffffffffffffffffffffff1602179055508173ffffffffffffffffffffffffffffffffffffffff168173ffffffffffffffffffffffffffffffffffffffff167f8be0079c531659141344cd1fd0a4f28419497f9722a3daafe3b4186f6b6457e060405160405180910390a35050565b620002e3620002d5620001f560201b60201c565b8383620002e760201b60201c565b5050565b8173ffffffffffffffffffffffffffffffffffffffff168373ffffffffffffffffffffffffffffffffffffffff16141562000359576040517f08c379a0000000000000000000000000000000000000000000000000000000008152600401620003509062000723565b60405180910390fd5b80600660008573ffffffffffffffffffffffffffffffffffffffff1673ffffffffffffffffffffffffffffffffffffffff16815260200190815260200160002060008473ffffffffffffffffffffffffffffffffffffffff1673ffffffffffffffffffffffffffffffffffffffff16815260200190815260200160002060006101000a81548160ff0219169083151502179055508173ffffffffffffffffffffffffffffffffffffffff168373ffffffffffffffffffffffffffffffffffffffff167f17307eab39ab6107e8899845ad3d59bd9653f200f220920489ca2b5937696c31836040516200044c919062000706565b60405180910390a3505050565b82805462000467906200082b565b90600052602060002090601f0160209004810192826200048b5760008555620004d7565b82601f10620004a657805160ff1916838001178555620004d7565b82800160010185558215620004d7579182015b82811115620004d6578251825591602001919060010190620004b9565b5b509050620004e69190620004ea565b5090565b5b8082111562000505576000816000905550600101620004eb565b5090565b6000620005206200051a846200076e565b62000745565b9050828152602081018484840111156200053957600080fd5b62000546848285620007f5565b509392505050565b6000815190506200055f816200092f565b92915050565b600081519050620005768162000949565b92915050565b6000815190506200058d8162000963565b92915050565b600082601f830112620005a557600080fd5b8151620005b784826020860162000509565b91505092915050565b600080600080600080600080610100898b031215620005de57600080fd5b6000620005ee8b828c016200054e565b985050602089015167ffffffffffffffff8111156200060c57600080fd5b6200061a8b828c0162000593565b975050604089015167ffffffffffffffff8111156200063857600080fd5b620006468b828c0162000593565b9650506060620006598b828c0162000565565b95505060806200066c8b828c016200057c565b94505060a06200067f8b828c016200054e565b93505060c089015167ffffffffffffffff8111156200069d57600080fd5b620006ab8b828c0162000593565b92505060e0620006be8b828c016200054e565b9150509295985092959890939650565b620006d981620007c9565b82525050565b6000620006ee601983620007a4565b9150620006fb8262000906565b602082019050919050565b60006020820190506200071d6000830184620006ce565b92915050565b600060208201905081810360008301526200073e81620006df565b9050919050565b60006200075162000764565b90506200075f828262000861565b919050565b6000604051905090565b600067ffffffffffffffff8211156200078c576200078b620008c6565b5b6200079782620008f5565b9050602081019050919050565b600082825260208201905092915050565b6000620007c282620007d5565b9050919050565b60008115159050919050565b600073ffffffffffffffffffffffffffffffffffffffff82169050919050565b60005b8381101562000815578082015181840152602081019050620007f8565b8381111562000825576000848401525b50505050565b600060028204905060018216806200084457607f821691505b602082108114156200085b576200085a62000897565b5b50919050565b6200086c82620008f5565b810181811067ffffffffffffffff821117156200088e576200088d620008c6565b5b80604052505050565b7f4e487b7100000000000000000000000000000000000000000000000000000000600052602260045260246000fd5b7f4e487b7100000000000000000000000000000000000000000000000000000000600052604160045260246000fd5b6000601f19601f8301169050919050565b7f4552433732313a20617070726f766520746f2063616c6c657200000000000000600082015250565b6200093a81620007b5565b81146200094657600080fd5b50565b6200095481620007c9565b81146200096057600080fd5b50565b600381106200097157600080fd5b50565b61478880620009846000396000f3fe608060405234801561001057600080fd5b50600436106102115760003560e01c8063715018a611610125578063c2f637dc116100ad578063d0def5211161007c578063d0def5211461062b578063dd745f771461065b578063e8a3d48514610677578063e985e9c514610695578063f2fde38b146106c557610211565b8063c2f637dc1461057d578063c87b56dd146105ad578063cafa8dfe146105dd578063cf35bdd0146105fb57610211565b806395d89b41116100f457806395d89b41146104ed578063a22cb4651461050b578063a3a51bd514610527578063b514371514610545578063b88d4fde1461056157610211565b8063715018a61461048b57806380a54001146104955780638da5cb5b146104b3578063938e3d7b146104d157610211565b80632f745c59116101a85780634f6ccce7116101775780634f6ccce7146103bf57806354840c6e146103ef5780635aa6e6751461040d5780636352211e1461042b57806370a082311461045b57610211565b80632f745c591461033757806330fa738c1461036757806332cb6b0c1461038557806342842e0e146103a357610211565b806318160ddd116101e457806318160ddd146102b057806323b872dd146102ce578063292b80da146102ea5780632a55205a1461030657610211565b806301ffc9a71461021657806306fdde0314610246578063081812fc14610264578063095ea7b314610294575b600080fd5b610230600480360381019061022b91906134c8565b6106e1565b60405161023d9190613aa3565b60405180910390f35b61024e61075b565b60405161025b9190613ad9565b60405180910390f35b61027e6004803603810190610279919061355f565b6107ed565b60405161028b9190613a13565b60405180910390f35b6102ae60048036038101906102a99190613463565b610833565b005b6102b861094b565b6040516102c59190613d7b565b60405180910390f35b6102e860048036038101906102e39190613309565b610958565b005b61030460048036038101906102ff91906135c4565b6109b8565b005b610320600480360381019061031b9190613618565b610a74565b60405161032e929190613a7a565b60405180910390f35b610351600480360381019061034c9190613463565b610ac4565b60405161035e9190613d7b565b60405180910390f35b61036f610b69565b60405161037c9190613abe565b60405180910390f35b61038d610b7c565b60405161039a9190613d7b565b60405180910390f35b6103bd60048036038101906103b89190613309565b610b82565b005b6103d960048036038101906103d4919061355f565b610ba2565b6040516103e69190613d7b565b60405180910390f35b6103f7610c39565b6040516104049190613aa3565b60405180910390f35b610415610c4c565b6040516104229190613a13565b60405180910390f35b6104456004803603810190610440919061355f565b610c72565b6040516104529190613a13565b60405180910390f35b610475600480360381019061047091906132a4565b610cf9565b6040516104829190613d7b565b60405180910390f35b610493610db1565b005b61049d610dc5565b6040516104aa9190613a13565b60405180910390f35b6104bb610deb565b6040516104c89190613a13565b60405180910390f35b6104eb60048036038101906104e6919061351a565b610e14565b005b6104f5610e32565b6040516105029190613ad9565b60405180910390f35b610525600480360381019061052091906133d3565b610ec4565b005b61052f610eda565b60405161053c9190613a13565b60405180910390f35b61055f600480360381019061055a91906132a4565b610f04565b005b61057b60048036038101906105769190613358565b611033565b005b61059760048036038101906105929190613588565b611095565b6040516105a49190613d7b565b60405180910390f35b6105c760048036038101906105c2919061355f565b611273565b6040516105d49190613ad9565b60405180910390f35b6105e5611285565b6040516105f29190613d7b565b60405180910390f35b6106156004803603810190610610919061355f565b61128a565b6040516106229190613ad9565b60405180910390f35b6106456004803603810190610640919061340f565b61132a565b6040516106529190613d7b565b60405180910390f35b6106756004803603810190610670919061349f565b6114f0565b005b61067f61159d565b60405161068c9190613ad9565b60405180910390f35b6106af60048036038101906106aa91906132cd565b61162f565b6040516106bc9190613aa3565b60405180910390f35b6106df60048036038101906106da91906132a4565b6116c3565b005b60007f2a55205a000000000000000000000000000000000000000000000000000000007bffffffffffffffffffffffffffffffffffffffffffffffffffffffff1916827bffffffffffffffffffffffffffffffffffffffffffffffffffffffff19161480610754575061075382611747565b5b9050919050565b60606001805461076a9061405d565b80601f01602080910402602001604051908101604052809291908181526020018280546107969061405d565b80156107e35780601f106107b8576101008083540402835291602001916107e3565b820191906000526020600020905b8154815290600101906020018083116107c657829003601f168201915b5050505050905090565b60006107f8826117a8565b6005600083815260200190815260200160002060009054906101000a900473ffffffffffffffffffffffffffffffffffffffff169050919050565b600061083e82610c72565b90508073ffffffffffffffffffffffffffffffffffffffff168373ffffffffffffffffffffffffffffffffffffffff1614156108af576040517f08c379a00000000000000000000000000000000000000000000000000000000081526004016108a690613cfb565b60405180910390fd5b8073ffffffffffffffffffffffffffffffffffffffff166108ce6117f3565b73ffffffffffffffffffffffffffffffffffffffff1614806108fd57506108fc816108f76117f3565b61162f565b5b61093c576040517f08c379a000000000000000000000000000000000000000000000000000000000815260040161093390613d1b565b60405180910390fd5b61094683836117fb565b505050565b6000600980549050905090565b6109696109636117f3565b826118b4565b6109a8576040517f08c379a000000000000000000000000000000000000000000000000000000000815260040161099f90613afb565b60405180910390fd5b6109b3838383611949565b505050565b600c60009054906101000a900473ffffffffffffffffffffffffffffffffffffffff1673ffffffffffffffffffffffffffffffffffffffff163373ffffffffffffffffffffffffffffffffffffffff1614610a48576040517f08c379a0000000000000000000000000000000000000000000000000000000008152600401610a3f90613c7b565b60405180910390fd5b80601160008481526020019081526020016000209080519060200190610a6f929190612ff8565b505050565b60008060006064601985610a889190613ee7565b610a929190613eb6565b9050600f60009054906101000a900473ffffffffffffffffffffffffffffffffffffffff168192509250509250929050565b6000610acf83610cf9565b8210610b10576040517f08c379a0000000000000000000000000000000000000000000000000000000008152600401610b0790613b1b565b60405180910390fd5b600760008473ffffffffffffffffffffffffffffffffffffffff1673ffffffffffffffffffffffffffffffffffffffff168152602001908152602001600020600083815260200190815260200160002054905092915050565b601060149054906101000a900460ff1681565b6101f781565b610b9d83838360405180602001604052806000815250611033565b505050565b6000610bac61094b565b8210610bed576040517f08c379a0000000000000000000000000000000000000000000000000000000008152600401610be490613d3b565b60405180910390fd5b60098281548110610c27577f4e487b7100000000000000000000000000000000000000000000000000000000600052603260045260246000fd5b90600052602060002001549050919050565b600c60149054906101000a900460ff1681565b600c60009054906101000a900473ffffffffffffffffffffffffffffffffffffffff1681565b600080610c7e83611c43565b9050600073ffffffffffffffffffffffffffffffffffffffff168173ffffffffffffffffffffffffffffffffffffffff161415610cf0576040517f08c379a0000000000000000000000000000000000000000000000000000000008152600401610ce790613cdb565b60405180910390fd5b80915050919050565b60008073ffffffffffffffffffffffffffffffffffffffff168273ffffffffffffffffffffffffffffffffffffffff161415610d6a576040517f08c379a0000000000000000000000000000000000000000000000000000000008152600401610d6190613c3b565b60405180910390fd5b600460008373ffffffffffffffffffffffffffffffffffffffff1673ffffffffffffffffffffffffffffffffffffffff168152602001908152602001600020549050919050565b610db9611c80565b610dc36000611cfe565b565b601060009054906101000a900473ffffffffffffffffffffffffffffffffffffffff1681565b60008060009054906101000a900473ffffffffffffffffffffffffffffffffffffffff16905090565b610e1c611c80565b8181600e9190610e2d92919061307e565b505050565b606060028054610e419061405d565b80601f0160208091040260200160405190810160405280929190818152602001828054610e6d9061405d565b8015610eba5780601f10610e8f57610100808354040283529160200191610eba565b820191906000526020600020905b815481529060010190602001808311610e9d57829003601f168201915b5050505050905090565b610ed6610ecf6117f3565b8383611dc2565b5050565b6000600f60009054906101000a900473ffffffffffffffffffffffffffffffffffffffff16905090565b600c60009054906101000a900473ffffffffffffffffffffffffffffffffffffffff1673ffffffffffffffffffffffffffffffffffffffff163373ffffffffffffffffffffffffffffffffffffffff1614610f94576040517f08c379a0000000000000000000000000000000000000000000000000000000008152600401610f8b90613c7b565b60405180910390fd5b600f60009054906101000a900473ffffffffffffffffffffffffffffffffffffffff1673ffffffffffffffffffffffffffffffffffffffff168173ffffffffffffffffffffffffffffffffffffffff161415610fef57600080fd5b80600f60006101000a81548173ffffffffffffffffffffffffffffffffffffffff021916908373ffffffffffffffffffffffffffffffffffffffff16021790555050565b61104461103e6117f3565b836118b4565b611083576040517f08c379a000000000000000000000000000000000000000000000000000000000815260040161107a90613afb565b60405180910390fd5b61108f84848484611f2f565b50505050565b6000600c60009054906101000a900473ffffffffffffffffffffffffffffffffffffffff1673ffffffffffffffffffffffffffffffffffffffff163373ffffffffffffffffffffffffffffffffffffffff1614611127576040517f08c379a000000000000000000000000000000000000000000000000000000000815260040161111e90613c7b565b60405180910390fd5b6101f78361113361094b565b61113d9190613e60565b111561117e576040517f08c379a000000000000000000000000000000000000000000000000000000000815260040161117590613b7b565b60405180910390fd5b60008061118961094b565b905060005b858160ff1610156112675760018160ff16836111aa9190613e60565b6111b49190613e60565b92506111c08584611f8b565b61125483600d80546111d19061405d565b80601f01602080910402602001604051908101604052809291908181526020018280546111fd9061405d565b801561124a5780601f1061121f5761010080835404028352916020019161124a565b820191906000526020600020905b81548152906001019060200180831161122d57829003601f168201915b50505050506121a9565b808061125f906140c0565b91505061118e565b50819250505092915050565b606061127e82612254565b9050919050565b601981565b601160205280600052604060002060009150905080546112a99061405d565b80601f01602080910402602001604051908101604052809291908181526020018280546112d59061405d565b80156113225780601f106112f757610100808354040283529160200191611322565b820191906000526020600020905b81548152906001019060200180831161130557829003601f168201915b505050505081565b6000600c60009054906101000a900473ffffffffffffffffffffffffffffffffffffffff1673ffffffffffffffffffffffffffffffffffffffff163373ffffffffffffffffffffffffffffffffffffffff16146113bc576040517f08c379a00000000000000000000000000000000000000000000000000000000081526004016113b390613c7b565b60405180910390fd5b6101f76113c761094b565b1115611408576040517f08c379a00000000000000000000000000000000000000000000000000000000081526004016113ff90613bbb565b60405180910390fd5b6000600161141461094b565b61141e9190613e60565b905061142a8482611f8b565b6114be81600d805461143b9061405d565b80601f01602080910402602001604051908101604052809291908181526020018280546114679061405d565b80156114b45780601f10611489576101008083540402835291602001916114b4565b820191906000526020600020905b81548152906001019060200180831161149757829003601f168201915b50505050506121a9565b826011600083815260200190815260200160002090805190602001906114e5929190612ff8565b508091505092915050565b600c60009054906101000a900473ffffffffffffffffffffffffffffffffffffffff1673ffffffffffffffffffffffffffffffffffffffff163373ffffffffffffffffffffffffffffffffffffffff1614611580576040517f08c379a000000000000000000000000000000000000000000000000000000000815260040161157790613c7b565b60405180910390fd5b80600c60146101000a81548160ff02191690831515021790555050565b6060600e80546115ac9061405d565b80601f01602080910402602001604051908101604052809291908181526020018280546115d89061405d565b80156116255780601f106115fa57610100808354040283529160200191611625565b820191906000526020600020905b81548152906001019060200180831161160857829003601f168201915b5050505050905090565b6000600660008473ffffffffffffffffffffffffffffffffffffffff1673ffffffffffffffffffffffffffffffffffffffff16815260200190815260200160002060008373ffffffffffffffffffffffffffffffffffffffff1673ffffffffffffffffffffffffffffffffffffffff16815260200190815260200160002060009054906101000a900460ff16905092915050565b6116cb611c80565b600073ffffffffffffffffffffffffffffffffffffffff168173ffffffffffffffffffffffffffffffffffffffff16141561173b576040517f08c379a000000000000000000000000000000000000000000000000000000000815260040161173290613b5b565b60405180910390fd5b61174481611cfe565b50565b6000634906490660e01b7bffffffffffffffffffffffffffffffffffffffffffffffffffffffff1916827bffffffffffffffffffffffffffffffffffffffffffffffffffffffff191614806117a157506117a082612367565b5b9050919050565b6117b1816123e1565b6117f0576040517f08c379a00000000000000000000000000000000000000000000000000000000081526004016117e790613cdb565b60405180910390fd5b50565b600033905090565b816005600083815260200190815260200160002060006101000a81548173ffffffffffffffffffffffffffffffffffffffff021916908373ffffffffffffffffffffffffffffffffffffffff160217905550808273ffffffffffffffffffffffffffffffffffffffff1661186e83610c72565b73ffffffffffffffffffffffffffffffffffffffff167f8c5be1e5ebec7d5bd14f71427d1e84f3dd0314c0f7b2291e5b200ac8c7c3b92560405160405180910390a45050565b6000806118c083610c72565b90508073ffffffffffffffffffffffffffffffffffffffff168473ffffffffffffffffffffffffffffffffffffffff1614806119025750611901818561162f565b5b8061194057508373ffffffffffffffffffffffffffffffffffffffff16611928846107ed565b73ffffffffffffffffffffffffffffffffffffffff16145b91505092915050565b8273ffffffffffffffffffffffffffffffffffffffff1661196982610c72565b73ffffffffffffffffffffffffffffffffffffffff16146119bf576040517f08c379a00000000000000000000000000000000000000000000000000000000081526004016119b690613b9b565b60405180910390fd5b600073ffffffffffffffffffffffffffffffffffffffff168273ffffffffffffffffffffffffffffffffffffffff161415611a2f576040517f08c379a0000000000000000000000000000000000000000000000000000000008152600401611a2690613bfb565b60405180910390fd5b611a3c8383836001612422565b8273ffffffffffffffffffffffffffffffffffffffff16611a5c82610c72565b73ffffffffffffffffffffffffffffffffffffffff1614611ab2576040517f08c379a0000000000000000000000000000000000000000000000000000000008152600401611aa990613b9b565b60405180910390fd5b6005600082815260200190815260200160002060006101000a81549073ffffffffffffffffffffffffffffffffffffffff02191690556001600460008573ffffffffffffffffffffffffffffffffffffffff1673ffffffffffffffffffffffffffffffffffffffff168152602001908152602001600020600082825403925050819055506001600460008473ffffffffffffffffffffffffffffffffffffffff1673ffffffffffffffffffffffffffffffffffffffff16815260200190815260200160002060008282540192505081905550816003600083815260200190815260200160002060006101000a81548173ffffffffffffffffffffffffffffffffffffffff021916908373ffffffffffffffffffffffffffffffffffffffff160217905550808273ffffffffffffffffffffffffffffffffffffffff168473ffffffffffffffffffffffffffffffffffffffff167fddf252ad1be2c89b69c2b068fc378daa952ba7f163c4a11628f55a4df523b3ef60405160405180910390a4611c3e8383836001612434565b505050565b60006003600083815260200190815260200160002060009054906101000a900473ffffffffffffffffffffffffffffffffffffffff169050919050565b611c886117f3565b73ffffffffffffffffffffffffffffffffffffffff16611ca6610deb565b73ffffffffffffffffffffffffffffffffffffffff1614611cfc576040517f08c379a0000000000000000000000000000000000000000000000000000000008152600401611cf390613cbb565b60405180910390fd5b565b60008060009054906101000a900473ffffffffffffffffffffffffffffffffffffffff169050816000806101000a81548173ffffffffffffffffffffffffffffffffffffffff021916908373ffffffffffffffffffffffffffffffffffffffff1602179055508173ffffffffffffffffffffffffffffffffffffffff168173ffffffffffffffffffffffffffffffffffffffff167f8be0079c531659141344cd1fd0a4f28419497f9722a3daafe3b4186f6b6457e060405160405180910390a35050565b8173ffffffffffffffffffffffffffffffffffffffff168373ffffffffffffffffffffffffffffffffffffffff161415611e31576040517f08c379a0000000000000000000000000000000000000000000000000000000008152600401611e2890613c1b565b60405180910390fd5b80600660008573ffffffffffffffffffffffffffffffffffffffff1673ffffffffffffffffffffffffffffffffffffffff16815260200190815260200160002060008473ffffffffffffffffffffffffffffffffffffffff1673ffffffffffffffffffffffffffffffffffffffff16815260200190815260200160002060006101000a81548160ff0219169083151502179055508173ffffffffffffffffffffffffffffffffffffffff168373ffffffffffffffffffffffffffffffffffffffff167f17307eab39ab6107e8899845ad3d59bd9653f200f220920489ca2b5937696c3183604051611f229190613aa3565b60405180910390a3505050565b611f3a848484611949565b611f468484848461243a565b611f85576040517f08c379a0000000000000000000000000000000000000000000000000000000008152600401611f7c90613b3b565b60405180910390fd5b50505050565b600073ffffffffffffffffffffffffffffffffffffffff168273ffffffffffffffffffffffffffffffffffffffff161415611ffb576040517f08c379a0000000000000000000000000000000000000000000000000000000008152600401611ff290613c9b565b60405180910390fd5b612004816123e1565b15612044576040517f08c379a000000000000000000000000000000000000000000000000000000000815260040161203b90613bdb565b60405180910390fd5b612052600083836001612422565b61205b816123e1565b1561209b576040517f08c379a000000000000000000000000000000000000000000000000000000000815260040161209290613bdb565b60405180910390fd5b6001600460008473ffffffffffffffffffffffffffffffffffffffff1673ffffffffffffffffffffffffffffffffffffffff16815260200190815260200160002060008282540192505081905550816003600083815260200190815260200160002060006101000a81548173ffffffffffffffffffffffffffffffffffffffff021916908373ffffffffffffffffffffffffffffffffffffffff160217905550808273ffffffffffffffffffffffffffffffffffffffff16600073ffffffffffffffffffffffffffffffffffffffff167fddf252ad1be2c89b69c2b068fc378daa952ba7f163c4a11628f55a4df523b3ef60405160405180910390a46121a5600083836001612434565b5050565b6121b2826123e1565b6121f1576040517f08c379a00000000000000000000000000000000000000000000000000000000081526004016121e890613c5b565b60405180910390fd5b80600b60008481526020019081526020016000209080519060200190612218929190612ff8565b507ff8e1a15aba9398e019f0b49df1a4fde98ee17ae345cb5f6b5e2c27f5033e8ce7826040516122489190613d7b565b60405180910390a15050565b606061225f826117a8565b6000600b6000848152602001908152602001600020805461227f9061405d565b80601f01602080910402602001604051908101604052809291908181526020018280546122ab9061405d565b80156122f85780601f106122cd576101008083540402835291602001916122f8565b820191906000526020600020905b8154815290600101906020018083116122db57829003601f168201915b5050505050905060006123096125d1565b905060008151141561231f578192505050612362565b60008251111561235457808260405160200161233c9291906139ef565b60405160208183030381529060405292505050612362565b61235d846125e8565b925050505b919050565b60007f780e9d63000000000000000000000000000000000000000000000000000000007bffffffffffffffffffffffffffffffffffffffffffffffffffffffff1916827bffffffffffffffffffffffffffffffffffffffffffffffffffffffff191614806123da57506123d982612650565b5b9050919050565b60008073ffffffffffffffffffffffffffffffffffffffff1661240383611c43565b73ffffffffffffffffffffffffffffffffffffffff1614159050919050565b61242e84848484612732565b50505050565b50505050565b600061245b8473ffffffffffffffffffffffffffffffffffffffff16612892565b156125c4578373ffffffffffffffffffffffffffffffffffffffff1663150b7a026124846117f3565b8786866040518563ffffffff1660e01b81526004016124a69493929190613a2e565b602060405180830381600087803b1580156124c057600080fd5b505af19250505080156124f157506040513d601f19601f820116820180604052508101906124ee91906134f1565b60015b612574573d8060008114612521576040519150601f19603f3d011682016040523d82523d6000602084013e612526565b606091505b5060008151141561256c576040517f08c379a000000000000000000000000000000000000000000000000000000000815260040161256390613b3b565b60405180910390fd5b805181602001fd5b63150b7a0260e01b7bffffffffffffffffffffffffffffffffffffffffffffffffffffffff1916817bffffffffffffffffffffffffffffffffffffffffffffffffffffffff1916149150506125c9565b600190505b949350505050565b606060405180602001604052806000815250905090565b60606125f3826117a8565b60006125fd6125d1565b9050600081511161261d5760405180602001604052806000815250612648565b80612627846128b5565b6040516020016126389291906139ef565b6040516020818303038152906040525b915050919050565b60007f80ac58cd000000000000000000000000000000000000000000000000000000007bffffffffffffffffffffffffffffffffffffffffffffffffffffffff1916827bffffffffffffffffffffffffffffffffffffffffffffffffffffffff1916148061271b57507f5b5e139f000000000000000000000000000000000000000000000000000000007bffffffffffffffffffffffffffffffffffffffffffffffffffffffff1916827bffffffffffffffffffffffffffffffffffffffffffffffffffffffff1916145b8061272b575061272a826129d9565b5b9050919050565b61273e84848484612a43565b6001811115612782576040517f08c379a000000000000000000000000000000000000000000000000000000000815260040161277990613d5b565b60405180910390fd5b6000829050600073ffffffffffffffffffffffffffffffffffffffff168573ffffffffffffffffffffffffffffffffffffffff1614156127ca576127c581612a49565b612809565b8373ffffffffffffffffffffffffffffffffffffffff168573ffffffffffffffffffffffffffffffffffffffff1614612808576128078582612a92565b5b5b600073ffffffffffffffffffffffffffffffffffffffff168473ffffffffffffffffffffffffffffffffffffffff16141561284c5761284781612bff565b61288b565b8473ffffffffffffffffffffffffffffffffffffffff168473ffffffffffffffffffffffffffffffffffffffff161461288a576128898482612d42565b5b5b5050505050565b6000808273ffffffffffffffffffffffffffffffffffffffff163b119050919050565b6060600060016128c484612dc1565b01905060008167ffffffffffffffff811115612909577f4e487b7100000000000000000000000000000000000000000000000000000000600052604160045260246000fd5b6040519080825280601f01601f19166020018201604052801561293b5781602001600182028036833780820191505090505b509050600082602001820190505b6001156129ce578080600190039150507f3031323334353637383961626364656600000000000000000000000000000000600a86061a8153600a85816129b8577f4e487b7100000000000000000000000000000000000000000000000000000000600052601260045260246000fd5b04945060008514156129c9576129ce565b612949565b819350505050919050565b60007f01ffc9a7000000000000000000000000000000000000000000000000000000007bffffffffffffffffffffffffffffffffffffffffffffffffffffffff1916827bffffffffffffffffffffffffffffffffffffffffffffffffffffffff1916149050919050565b50505050565b600980549050600a600083815260200190815260200160002081905550600981908060018154018082558091505060019003906000526020600020016000909190919091505550565b60006001612a9f84610cf9565b612aa99190613f41565b9050600060086000848152602001908152602001600020549050818114612b8e576000600760008673ffffffffffffffffffffffffffffffffffffffff1673ffffffffffffffffffffffffffffffffffffffff168152602001908152602001600020600084815260200190815260200160002054905080600760008773ffffffffffffffffffffffffffffffffffffffff1673ffffffffffffffffffffffffffffffffffffffff168152602001908152602001600020600084815260200190815260200160002081905550816008600083815260200190815260200160002081905550505b6008600084815260200190815260200160002060009055600760008573ffffffffffffffffffffffffffffffffffffffff1673ffffffffffffffffffffffffffffffffffffffff16815260200190815260200160002060008381526020019081526020016000206000905550505050565b60006001600980549050612c139190613f41565b90506000600a6000848152602001908152602001600020549050600060098381548110612c69577f4e487b7100000000000000000000000000000000000000000000000000000000600052603260045260246000fd5b906000526020600020015490508060098381548110612cb1577f4e487b7100000000000000000000000000000000000000000000000000000000600052603260045260246000fd5b906000526020600020018190555081600a600083815260200190815260200160002081905550600a6000858152602001908152602001600020600090556009805480612d26577f4e487b7100000000000000000000000000000000000000000000000000000000600052603160045260246000fd5b6001900381819060005260206000200160009055905550505050565b6000612d4d83610cf9565b905081600760008573ffffffffffffffffffffffffffffffffffffffff1673ffffffffffffffffffffffffffffffffffffffff168152602001908152602001600020600083815260200190815260200160002081905550806008600084815260200190815260200160002081905550505050565b600080600090507a184f03e93ff9f4daa797ed6e38ed64bf6a1f0100000000000000008310612e45577a184f03e93ff9f4daa797ed6e38ed64bf6a1f0100000000000000008381612e3b577f4e487b7100000000000000000000000000000000000000000000000000000000600052601260045260246000fd5b0492506040810190505b6d04ee2d6d415b85acef81000000008310612ea8576d04ee2d6d415b85acef81000000008381612e9e577f4e487b7100000000000000000000000000000000000000000000000000000000600052601260045260246000fd5b0492506020810190505b662386f26fc100008310612efd57662386f26fc100008381612ef3577f4e487b7100000000000000000000000000000000000000000000000000000000600052601260045260246000fd5b0492506010810190505b6305f5e1008310612f4c576305f5e1008381612f42577f4e487b7100000000000000000000000000000000000000000000000000000000600052601260045260246000fd5b0492506008810190505b6127108310612f97576127108381612f8d577f4e487b7100000000000000000000000000000000000000000000000000000000600052601260045260246000fd5b0492506004810190505b60648310612fe05760648381612fd6577f4e487b7100000000000000000000000000000000000000000000000000000000600052601260045260246000fd5b0492506002810190505b600a8310612fef576001810190505b80915050919050565b8280546130049061405d565b90600052602060002090601f016020900481019282613026576000855561306d565b82601f1061303f57805160ff191683800117855561306d565b8280016001018555821561306d579182015b8281111561306c578251825591602001919060010190613051565b5b50905061307a9190613104565b5090565b82805461308a9061405d565b90600052602060002090601f0160209004810192826130ac57600085556130f3565b82601f106130c557803560ff19168380011785556130f3565b828001600101855582156130f3579182015b828111156130f25782358255916020019190600101906130d7565b5b5090506131009190613104565b5090565b5b8082111561311d576000816000905550600101613105565b5090565b600061313461312f84613dbb565b613d96565b90508281526020810184848401111561314c57600080fd5b61315784828561401b565b509392505050565b600061317261316d84613dec565b613d96565b90508281526020810184848401111561318a57600080fd5b61319584828561401b565b509392505050565b6000813590506131ac816146f6565b92915050565b6000813590506131c18161470d565b92915050565b6000813590506131d681614724565b92915050565b6000815190506131eb81614724565b92915050565b600082601f83011261320257600080fd5b8135613212848260208601613121565b91505092915050565b60008083601f84011261322d57600080fd5b8235905067ffffffffffffffff81111561324657600080fd5b60208301915083600182028301111561325e57600080fd5b9250929050565b600082601f83011261327657600080fd5b813561328684826020860161315f565b91505092915050565b60008135905061329e8161473b565b92915050565b6000602082840312156132b657600080fd5b60006132c48482850161319d565b91505092915050565b600080604083850312156132e057600080fd5b60006132ee8582860161319d565b92505060206132ff8582860161319d565b9150509250929050565b60008060006060848603121561331e57600080fd5b600061332c8682870161319d565b935050602061333d8682870161319d565b925050604061334e8682870161328f565b9150509250925092565b6000806000806080858703121561336e57600080fd5b600061337c8782880161319d565b945050602061338d8782880161319d565b935050604061339e8782880161328f565b925050606085013567ffffffffffffffff8111156133bb57600080fd5b6133c7878288016131f1565b91505092959194509250565b600080604083850312156133e657600080fd5b60006133f48582860161319d565b9250506020613405858286016131b2565b9150509250929050565b6000806040838503121561342257600080fd5b60006134308582860161319d565b925050602083013567ffffffffffffffff81111561344d57600080fd5b61345985828601613265565b9150509250929050565b6000806040838503121561347657600080fd5b60006134848582860161319d565b92505060206134958582860161328f565b9150509250929050565b6000602082840312156134b157600080fd5b60006134bf848285016131b2565b91505092915050565b6000602082840312156134da57600080fd5b60006134e8848285016131c7565b91505092915050565b60006020828403121561350357600080fd5b6000613511848285016131dc565b91505092915050565b6000806020838503121561352d57600080fd5b600083013567ffffffffffffffff81111561354757600080fd5b6135538582860161321b565b92509250509250929050565b60006020828403121561357157600080fd5b600061357f8482850161328f565b91505092915050565b6000806040838503121561359b57600080fd5b60006135a98582860161328f565b92505060206135ba8582860161319d565b9150509250929050565b600080604083850312156135d757600080fd5b60006135e58582860161328f565b925050602083013567ffffffffffffffff81111561360257600080fd5b61360e85828601613265565b9150509250929050565b6000806040838503121561362b57600080fd5b60006136398582860161328f565b925050602061364a8582860161328f565b9150509250929050565b61365d81613f75565b82525050565b61366c81613f87565b82525050565b600061367d82613e1d565b6136878185613e33565b935061369781856020860161402a565b6136a0816141d5565b840191505092915050565b6136b481614009565b82525050565b60006136c582613e28565b6136cf8185613e44565b93506136df81856020860161402a565b6136e8816141d5565b840191505092915050565b60006136fe82613e28565b6137088185613e55565b935061371881856020860161402a565b80840191505092915050565b6000613731602d83613e44565b915061373c826141e6565b604082019050919050565b6000613754602b83613e44565b915061375f82614235565b604082019050919050565b6000613777603283613e44565b915061378282614284565b604082019050919050565b600061379a602683613e44565b91506137a5826142d3565b604082019050919050565b60006137bd601c83613e44565b91506137c882614322565b602082019050919050565b60006137e0602583613e44565b91506137eb8261434b565b604082019050919050565b6000613803601183613e44565b915061380e8261439a565b602082019050919050565b6000613826601c83613e44565b9150613831826143c3565b602082019050919050565b6000613849602483613e44565b9150613854826143ec565b604082019050919050565b600061386c601983613e44565b91506138778261443b565b602082019050919050565b600061388f602983613e44565b915061389a82614464565b604082019050919050565b60006138b2602e83613e44565b91506138bd826144b3565b604082019050919050565b60006138d5601d83613e44565b91506138e082614502565b602082019050919050565b60006138f8602083613e44565b91506139038261452b565b602082019050919050565b600061391b602083613e44565b915061392682614554565b602082019050919050565b600061393e601883613e44565b91506139498261457d565b602082019050919050565b6000613961602183613e44565b915061396c826145a6565b604082019050919050565b6000613984603d83613e44565b915061398f826145f5565b604082019050919050565b60006139a7602c83613e44565b91506139b282614644565b604082019050919050565b60006139ca603583613e44565b91506139d582614693565b604082019050919050565b6139e981613ff2565b82525050565b60006139fb82856136f3565b9150613a0782846136f3565b91508190509392505050565b6000602082019050613a286000830184613654565b92915050565b6000608082019050613a436000830187613654565b613a506020830186613654565b613a5d60408301856139e0565b8181036060830152613a6f8184613672565b905095945050505050565b6000604082019050613a8f6000830185613654565b613a9c60208301846139e0565b9392505050565b6000602082019050613ab86000830184613663565b92915050565b6000602082019050613ad360008301846136ab565b92915050565b60006020820190508181036000830152613af381846136ba565b905092915050565b60006020820190508181036000830152613b1481613724565b9050919050565b60006020820190508181036000830152613b3481613747565b9050919050565b60006020820190508181036000830152613b548161376a565b9050919050565b60006020820190508181036000830152613b748161378d565b9050919050565b60006020820190508181036000830152613b94816137b0565b9050919050565b60006020820190508181036000830152613bb4816137d3565b9050919050565b60006020820190508181036000830152613bd4816137f6565b9050919050565b60006020820190508181036000830152613bf481613819565b9050919050565b60006020820190508181036000830152613c148161383c565b9050919050565b60006020820190508181036000830152613c348161385f565b9050919050565b60006020820190508181036000830152613c5481613882565b9050919050565b60006020820190508181036000830152613c74816138a5565b9050919050565b60006020820190508181036000830152613c94816138c8565b9050919050565b60006020820190508181036000830152613cb4816138eb565b9050919050565b60006020820190508181036000830152613cd48161390e565b9050919050565b60006020820190508181036000830152613cf481613931565b9050919050565b60006020820190508181036000830152613d1481613954565b9050919050565b60006020820190508181036000830152613d3481613977565b9050919050565b60006020820190508181036000830152613d548161399a565b9050919050565b60006020820190508181036000830152613d74816139bd565b9050919050565b6000602082019050613d9060008301846139e0565b92915050565b6000613da0613db1565b9050613dac828261408f565b919050565b6000604051905090565b600067ffffffffffffffff821115613dd657613dd56141a6565b5b613ddf826141d5565b9050602081019050919050565b600067ffffffffffffffff821115613e0757613e066141a6565b5b613e10826141d5565b9050602081019050919050565b600081519050919050565b600081519050919050565b600082825260208201905092915050565b600082825260208201905092915050565b600081905092915050565b6000613e6b82613ff2565b9150613e7683613ff2565b9250827fffffffffffffffffffffffffffffffffffffffffffffffffffffffffffffffff03821115613eab57613eaa6140ea565b5b828201905092915050565b6000613ec182613ff2565b9150613ecc83613ff2565b925082613edc57613edb614119565b5b828204905092915050565b6000613ef282613ff2565b9150613efd83613ff2565b9250817fffffffffffffffffffffffffffffffffffffffffffffffffffffffffffffffff0483118215151615613f3657613f356140ea565b5b828202905092915050565b6000613f4c82613ff2565b9150613f5783613ff2565b925082821015613f6a57613f696140ea565b5b828203905092915050565b6000613f8082613fd2565b9050919050565b60008115159050919050565b60007fffffffff0000000000000000000000000000000000000000000000000000000082169050919050565b6000819050613fcd826146e2565b919050565b600073ffffffffffffffffffffffffffffffffffffffff82169050919050565b6000819050919050565b600060ff82169050919050565b600061401482613fbf565b9050919050565b82818337600083830152505050565b60005b8381101561404857808201518184015260208101905061402d565b83811115614057576000848401525b50505050565b6000600282049050600182168061407557607f821691505b6020821081141561408957614088614177565b5b50919050565b614098826141d5565b810181811067ffffffffffffffff821117156140b7576140b66141a6565b5b80604052505050565b60006140cb82613ffc565b915060ff8214156140df576140de6140ea565b5b600182019050919050565b7f4e487b7100000000000000000000000000000000000000000000000000000000600052601160045260246000fd5b7f4e487b7100000000000000000000000000000000000000000000000000000000600052601260045260246000fd5b7f4e487b7100000000000000000000000000000000000000000000000000000000600052602160045260246000fd5b7f4e487b7100000000000000000000000000000000000000000000000000000000600052602260045260246000fd5b7f4e487b7100000000000000000000000000000000000000000000000000000000600052604160045260246000fd5b6000601f19601f8301169050919050565b7f4552433732313a2063616c6c6572206973206e6f7420746f6b656e206f776e6560008201527f72206f7220617070726f76656400000000000000000000000000000000000000602082015250565b7f455243373231456e756d657261626c653a206f776e657220696e646578206f7560008201527f74206f6620626f756e6473000000000000000000000000000000000000000000602082015250565b7f4552433732313a207472616e7366657220746f206e6f6e20455243373231526560008201527f63656976657220696d706c656d656e7465720000000000000000000000000000602082015250565b7f4f776e61626c653a206e6577206f776e657220697320746865207a65726f206160008201527f6464726573730000000000000000000000000000000000000000000000000000602082015250565b7f4e6f7420656e6f756768204e465473206c65667420746f206d696e7400000000600082015250565b7f4552433732313a207472616e736665722066726f6d20696e636f72726563742060008201527f6f776e6572000000000000000000000000000000000000000000000000000000602082015250565b7f416c6c20746f6b656e73206d696e746564000000000000000000000000000000600082015250565b7f4552433732313a20746f6b656e20616c7265616479206d696e74656400000000600082015250565b7f4552433732313a207472616e7366657220746f20746865207a65726f2061646460008201527f7265737300000000000000000000000000000000000000000000000000000000602082015250565b7f4552433732313a20617070726f766520746f2063616c6c657200000000000000600082015250565b7f4552433732313a2061646472657373207a65726f206973206e6f74206120766160008201527f6c6964206f776e65720000000000000000000000000000000000000000000000602082015250565b7f45524337323155524953746f726167653a2055524920736574206f66206e6f6e60008201527f6578697374656e7420746f6b656e000000000000000000000000000000000000602082015250565b7f6f6e6c7920676f7665726e616e63652063616e2063616c6c2074686973000000600082015250565b7f4552433732313a206d696e7420746f20746865207a65726f2061646472657373600082015250565b7f4f776e61626c653a2063616c6c6572206973206e6f7420746865206f776e6572600082015250565b7f4552433732313a20696e76616c696420746f6b656e2049440000000000000000600082015250565b7f4552433732313a20617070726f76616c20746f2063757272656e74206f776e6560008201527f7200000000000000000000000000000000000000000000000000000000000000602082015250565b7f4552433732313a20617070726f76652063616c6c6572206973206e6f7420746f60008201527f6b656e206f776e6572206f7220617070726f76656420666f7220616c6c000000602082015250565b7f455243373231456e756d657261626c653a20676c6f62616c20696e646578206f60008201527f7574206f6620626f756e64730000000000000000000000000000000000000000602082015250565b7f455243373231456e756d657261626c653a20636f6e736563757469766520747260008201527f616e7366657273206e6f7420737570706f727465640000000000000000000000602082015250565b600381106146f3576146f2614148565b5b50565b6146ff81613f75565b811461470a57600080fd5b50565b61471681613f87565b811461472157600080fd5b50565b61472d81613f93565b811461473857600080fd5b50565b61474481613ff2565b811461474f57600080fd5b5056fea2646970667358221220d8a6189bf734d4a528823e1b27e3f06148d822f9c41246619a56cd68cb24d99864736f6c63430008010033",
  "linkReferences": {},
  "deployedLinkReferences": {}
}