{
  "_format": "hh-sol-artifact-1",
  "contractName": "MainToken",
  "sourceName": "eth/contracts/MainToken.sol",
  "abi": [
    {
      "inputs": [
        {
          "internalType": "address",
          "name": "_governance",
          "type": "address"
        },
        {
          "internalType": "string",
          "name": "name",
          "type": "string"
        },
        {
          "internalType": "string",
          "name": "symbol",
          "type": "string"
        },
        {
          "internalType": "uint256",
          "name": "_maxTotalSupply",
          "type": "uint256"
        }
      ],
      "stateMutability": "nonpayable",
      "type": "constructor"
    },
    {
      "anonymous": false,
      "inputs": [
        {
          "indexed": true,
          "internalType": "address",
          "name": "owner",
          "type": "address"
        },
        {
          "indexed": true,
          "internalType": "address",
          "name": "spender",
          "type": "address"
        },
        {
          "indexed": false,
          "internalType": "uint256",
          "name": "value",
          "type": "uint256"
        }
      ],
      "name": "Approval",
      "type": "event"
    },
    {
      "anonymous": false,
      "inputs": [
        {
          "indexed": true,
          "internalType": "address",
          "name": "from",
          "type": "address"
        },
        {
          "indexed": true,
          "internalType": "address",
          "name": "to",
          "type": "address"
        },
        {
          "indexed": false,
          "internalType": "uint256",
          "name": "value",
          "type": "uint256"
        }
      ],
      "name": "Transfer",
      "type": "event"
    },
    {
      "inputs": [
        {
          "internalType": "address",
          "name": "owner",
          "type": "address"
        },
        {
          "internalType": "address",
          "name": "spender",
          "type": "address"
        }
      ],
      "name": "allowance",
      "outputs": [
        {
          "internalType": "uint256",
          "name": "",
          "type": "uint256"
        }
      ],
      "stateMutability": "view",
      "type": "function"
    },
    {
      "inputs": [
        {
          "internalType": "address",
          "name": "spender",
          "type": "address"
        },
        {
          "internalType": "uint256",
          "name": "amount",
          "type": "uint256"
        }
      ],
      "name": "approve",
      "outputs": [
        {
          "internalType": "bool",
          "name": "",
          "type": "bool"
        }
      ],
      "stateMutability": "nonpayable",
      "type": "function"
    },
    {
      "inputs": [
        {
          "internalType": "address",
          "name": "account",
          "type": "address"
        }
      ],
      "name": "balanceOf",
      "outputs": [
        {
          "internalType": "uint256",
          "name": "",
          "type": "uint256"
        }
      ],
      "stateMutability": "view",
      "type": "function"
    },
    {
      "inputs": [],
      "name": "decimals",
      "outputs": [
        {
          "internalType": "uint8",
          "name": "",
          "type": "uint8"
        }
      ],
      "stateMutability": "view",
      "type": "function"
    },
    {
      "inputs": [
        {
          "internalType": "address",
          "name": "spender",
          "type": "address"
        },
        {
          "internalType": "uint256",
          "name": "subtractedValue",
          "type": "uint256"
        }
      ],
      "name": "decreaseAllowance",
      "outputs": [
        {
          "internalType": "bool",
          "name": "",
          "type": "bool"
        }
      ],
      "stateMutability": "nonpayable",
      "type": "function"
    },
    {
      "inputs": [],
      "name": "governance",
      "outputs": [
        {
          "internalType": "address",
          "name": "",
          "type": "address"
        }
      ],
      "stateMutability": "view",
      "type": "function"
    },
    {
      "inputs": [
        {
          "internalType": "address",
          "name": "spender",
          "type": "address"
        },
        {
          "internalType": "uint256",
          "name": "addedValue",
          "type": "uint256"
        }
      ],
      "name": "increaseAllowance",
      "outputs": [
        {
          "internalType": "bool",
          "name": "",
          "type": "bool"
        }
      ],
      "stateMutability": "nonpayable",
      "type": "function"
    },
    {
      "inputs": [],
      "name": "maxTotalSupply",
      "outputs": [
        {
          "internalType": "uint256",
          "name": "",
          "type": "uint256"
        }
      ],
      "stateMutability": "view",
      "type": "function"
    },
    {
      "inputs": [
        {
          "internalType": "address",
          "name": "account",
          "type": "address"
        },
        {
          "internalType": "uint256",
          "name": "amount",
          "type": "uint256"
        }
      ],
      "name": "mint",
      "outputs": [],
      "stateMutability": "nonpayable",
      "type": "function"
    },
    {
      "inputs": [],
      "name": "name",
      "outputs": [
        {
          "internalType": "string",
          "name": "",
          "type": "string"
        }
      ],
      "stateMutability": "view",
      "type": "function"
    },
    {
      "inputs": [],
      "name": "symbol",
      "outputs": [
        {
          "internalType": "string",
          "name": "",
          "type": "string"
        }
      ],
      "stateMutability": "view",
      "type": "function"
    },
    {
      "inputs": [],
      "name": "totalSupply",
      "outputs": [
        {
          "internalType": "uint256",
          "name": "",
          "type": "uint256"
        }
      ],
      "stateMutability": "view",
      "type": "function"
    },
    {
      "inputs": [
        {
          "internalType": "address",
          "name": "to",
          "type": "address"
        },
        {
          "internalType": "uint256",
          "name": "amount",
          "type": "uint256"
        }
      ],
      "name": "transfer",
      "outputs": [
        {
          "internalType": "bool",
          "name": "",
          "type": "bool"
        }
      ],
      "stateMutability": "nonpayable",
      "type": "function"
    },
    {
      "inputs": [
        {
          "internalType": "address",
          "name": "from",
          "type": "address"
        },
        {
          "internalType": "address",
          "name": "to",
          "type": "address"
        },
        {
          "internalType": "uint256",
          "name": "amount",
          "type": "uint256"
        }
      ],
      "name": "transferFrom",
      "outputs": [
        {
          "internalType": "bool",
          "name": "",
          "type": "bool"
        }
      ],
      "stateMutability": "nonpayable",
      "type": "function"
    },
    {
      "inputs": [
        {
          "internalType": "address",
          "name": "newGovernance",
          "type": "address"
        }
      ],
      "name": "updateGovernance",
      "outputs": [],
      "stateMutability": "nonpayable",
      "type": "function"
    }
  ],
  "bytecode": "0x60806040523480156200001157600080fd5b506040516200207038038062002070833981810160405281019062000037919062000471565b828281600390805190602001906200005192919062000321565b5080600490805190602001906200006a92919062000321565b50505033600560006101000a81548173ffffffffffffffffffffffffffffffffffffffff021916908373ffffffffffffffffffffffffffffffffffffffff16021790555083600660006101000a81548173ffffffffffffffffffffffffffffffffffffffff021916908373ffffffffffffffffffffffffffffffffffffffff160217905550806007819055506200010884826200011360201b60201c565b505050505062000860565b600080620001266200014660201b60201c565b90506200013b8185856200014e60201b60201c565b600191505092915050565b600033905090565b600073ffffffffffffffffffffffffffffffffffffffff168373ffffffffffffffffffffffffffffffffffffffff161415620001c1576040517f08c379a0000000000000000000000000000000000000000000000000000000008152600401620001b89062000590565b60405180910390fd5b600073ffffffffffffffffffffffffffffffffffffffff168273ffffffffffffffffffffffffffffffffffffffff16141562000234576040517f08c379a00000000000000000000000000000000000000000000000000000000081526004016200022b906200056e565b60405180910390fd5b80600160008573ffffffffffffffffffffffffffffffffffffffff1673ffffffffffffffffffffffffffffffffffffffff16815260200190815260200160002060008473ffffffffffffffffffffffffffffffffffffffff1673ffffffffffffffffffffffffffffffffffffffff168152602001908152602001600020819055508173ffffffffffffffffffffffffffffffffffffffff168373ffffffffffffffffffffffffffffffffffffffff167f8c5be1e5ebec7d5bd14f71427d1e84f3dd0314c0f7b2291e5b200ac8c7c3b92583604051620003149190620005b2565b60405180910390a3505050565b8280546200032f90620006b3565b90600052602060002090601f0160209004810192826200035357600085556200039f565b82601f106200036e57805160ff19168380011785556200039f565b828001600101855582156200039f579182015b828111156200039e57825182559160200191906001019062000381565b5b509050620003ae9190620003b2565b5090565b5b80821115620003cd576000816000905550600101620003b3565b5090565b6000620003e8620003e284620005f8565b620005cf565b9050828152602081018484840111156200040157600080fd5b6200040e8482856200067d565b509392505050565b60008151905062000427816200082c565b92915050565b600082601f8301126200043f57600080fd5b815162000451848260208601620003d1565b91505092915050565b6000815190506200046b8162000846565b92915050565b600080600080608085870312156200048857600080fd5b6000620004988782880162000416565b945050602085015167ffffffffffffffff811115620004b657600080fd5b620004c4878288016200042d565b935050604085015167ffffffffffffffff811115620004e257600080fd5b620004f0878288016200042d565b925050606062000503878288016200045a565b91505092959194509250565b60006200051e6022836200062e565b91506200052b826200078e565b604082019050919050565b6000620005456024836200062e565b91506200055282620007dd565b604082019050919050565b620005688162000673565b82525050565b6000602082019050818103600083015262000589816200050f565b9050919050565b60006020820190508181036000830152620005ab8162000536565b9050919050565b6000602082019050620005c960008301846200055d565b92915050565b6000620005db620005ee565b9050620005e98282620006e9565b919050565b6000604051905090565b600067ffffffffffffffff8211156200061657620006156200074e565b5b62000621826200077d565b9050602081019050919050565b600082825260208201905092915050565b60006200064c8262000653565b9050919050565b600073ffffffffffffffffffffffffffffffffffffffff82169050919050565b6000819050919050565b60005b838110156200069d57808201518184015260208101905062000680565b83811115620006ad576000848401525b50505050565b60006002820490506001821680620006cc57607f821691505b60208210811415620006e357620006e26200071f565b5b50919050565b620006f4826200077d565b810181811067ffffffffffffffff821117156200071657620007156200074e565b5b80604052505050565b7f4e487b7100000000000000000000000000000000000000000000000000000000600052602260045260246000fd5b7f4e487b7100000000000000000000000000000000000000000000000000000000600052604160045260246000fd5b6000601f19601f8301169050919050565b7f45524332303a20617070726f766520746f20746865207a65726f20616464726560008201527f7373000000000000000000000000000000000000000000000000000000000000602082015250565b7f45524332303a20617070726f76652066726f6d20746865207a65726f2061646460008201527f7265737300000000000000000000000000000000000000000000000000000000602082015250565b62000837816200063f565b81146200084357600080fd5b50565b620008518162000673565b81146200085d57600080fd5b50565b61180080620008706000396000f3fe608060405234801561001057600080fd5b50600436106100f55760003560e01c806340c10f1911610097578063a457c2d711610066578063a457c2d71461028a578063a9059cbb146102ba578063b2561263146102ea578063dd62ed3e14610306576100f5565b806340c10f19146102025780635aa6e6751461021e57806370a082311461023c57806395d89b411461026c576100f5565b806323b872dd116100d357806323b872dd146101665780632ab4d05214610196578063313ce567146101b457806339509351146101d2576100f5565b806306fdde03146100fa578063095ea7b31461011857806318160ddd14610148575b600080fd5b610102610336565b60405161010f91906111eb565b60405180910390f35b610132600480360381019061012d9190610fa6565b6103c8565b60405161013f91906111d0565b60405180910390f35b6101506103eb565b60405161015d919061134d565b60405180910390f35b610180600480360381019061017b9190610f57565b6103f5565b60405161018d91906111d0565b60405180910390f35b61019e610424565b6040516101ab919061134d565b60405180910390f35b6101bc61042a565b6040516101c99190611368565b60405180910390f35b6101ec60048036038101906101e79190610fa6565b610433565b6040516101f991906111d0565b60405180910390f35b61021c60048036038101906102179190610fa6565b61046a565b005b61022661056c565b60405161023391906111b5565b60405180910390f35b61025660048036038101906102519190610ef2565b610592565b604051610263919061134d565b60405180910390f35b6102746105da565b60405161028191906111eb565b60405180910390f35b6102a4600480360381019061029f9190610fa6565b61066c565b6040516102b191906111d0565b60405180910390f35b6102d460048036038101906102cf9190610fa6565b6106e3565b6040516102e191906111d0565b60405180910390f35b61030460048036038101906102ff9190610ef2565b610706565b005b610320600480360381019061031b9190610f1b565b6107f3565b60405161032d919061134d565b60405180910390f35b6060600380546103459061147d565b80601f01602080910402602001604051908101604052809291908181526020018280546103719061147d565b80156103be5780601f10610393576101008083540402835291602001916103be565b820191906000526020600020905b8154815290600101906020018083116103a157829003601f168201915b5050505050905090565b6000806103d361087a565b90506103e0818585610882565b600191505092915050565b6000600254905090565b60008061040061087a565b905061040d858285610a4d565b610418858585610ad9565b60019150509392505050565b60075481565b60006012905090565b60008061043e61087a565b905061045f81858561045085896107f3565b61045a919061139f565b610882565b600191505092915050565b600660009054906101000a900473ffffffffffffffffffffffffffffffffffffffff1673ffffffffffffffffffffffffffffffffffffffff163373ffffffffffffffffffffffffffffffffffffffff16146104fa576040517f08c379a00000000000000000000000000000000000000000000000000000000081526004016104f19061128d565b60405180910390fd5b60006105046103eb565b905060075461051c8383610d5190919063ffffffff16565b111561055d576040517f08c379a0000000000000000000000000000000000000000000000000000000008152600401610554906112ed565b60405180910390fd5b6105678383610d67565b505050565b600660009054906101000a900473ffffffffffffffffffffffffffffffffffffffff1681565b60008060008373ffffffffffffffffffffffffffffffffffffffff1673ffffffffffffffffffffffffffffffffffffffff168152602001908152602001600020549050919050565b6060600480546105e99061147d565b80601f01602080910402602001604051908101604052809291908181526020018280546106159061147d565b80156106625780601f1061063757610100808354040283529160200191610662565b820191906000526020600020905b81548152906001019060200180831161064557829003601f168201915b5050505050905090565b60008061067761087a565b9050600061068582866107f3565b9050838110156106ca576040517f08c379a00000000000000000000000000000000000000000000000000000000081526004016106c19061130d565b60405180910390fd5b6106d78286868403610882565b60019250505092915050565b6000806106ee61087a565b90506106fb818585610ad9565b600191505092915050565b600660009054906101000a900473ffffffffffffffffffffffffffffffffffffffff1673ffffffffffffffffffffffffffffffffffffffff163373ffffffffffffffffffffffffffffffffffffffff1614610796576040517f08c379a000000000000000000000000000000000000000000000000000000000815260040161078d9061128d565b60405180910390fd5b80600660006101000a81548173ffffffffffffffffffffffffffffffffffffffff021916908373ffffffffffffffffffffffffffffffffffffffff1602179055506107e28160006103c8565b506107ef816007546103c8565b5050565b6000600160008473ffffffffffffffffffffffffffffffffffffffff1673ffffffffffffffffffffffffffffffffffffffff16815260200190815260200160002060008373ffffffffffffffffffffffffffffffffffffffff1673ffffffffffffffffffffffffffffffffffffffff16815260200190815260200160002054905092915050565b600033905090565b600073ffffffffffffffffffffffffffffffffffffffff168373ffffffffffffffffffffffffffffffffffffffff1614156108f2576040517f08c379a00000000000000000000000000000000000000000000000000000000081526004016108e9906112cd565b60405180910390fd5b600073ffffffffffffffffffffffffffffffffffffffff168273ffffffffffffffffffffffffffffffffffffffff161415610962576040517f08c379a00000000000000000000000000000000000000000000000000000000081526004016109599061122d565b60405180910390fd5b80600160008573ffffffffffffffffffffffffffffffffffffffff1673ffffffffffffffffffffffffffffffffffffffff16815260200190815260200160002060008473ffffffffffffffffffffffffffffffffffffffff1673ffffffffffffffffffffffffffffffffffffffff168152602001908152602001600020819055508173ffffffffffffffffffffffffffffffffffffffff168373ffffffffffffffffffffffffffffffffffffffff167f8c5be1e5ebec7d5bd14f71427d1e84f3dd0314c0f7b2291e5b200ac8c7c3b92583604051610a40919061134d565b60405180910390a3505050565b6000610a5984846107f3565b90507fffffffffffffffffffffffffffffffffffffffffffffffffffffffffffffffff8114610ad35781811015610ac5576040517f08c379a0000000000000000000000000000000000000000000000000000000008152600401610abc9061124d565b60405180910390fd5b610ad28484848403610882565b5b50505050565b600073ffffffffffffffffffffffffffffffffffffffff168373ffffffffffffffffffffffffffffffffffffffff161415610b49576040517f08c379a0000000000000000000000000000000000000000000000000000000008152600401610b40906112ad565b60405180910390fd5b600073ffffffffffffffffffffffffffffffffffffffff168273ffffffffffffffffffffffffffffffffffffffff161415610bb9576040517f08c379a0000000000000000000000000000000000000000000000000000000008152600401610bb09061120d565b60405180910390fd5b610bc4838383610ebe565b60008060008573ffffffffffffffffffffffffffffffffffffffff1673ffffffffffffffffffffffffffffffffffffffff16815260200190815260200160002054905081811015610c4a576040517f08c379a0000000000000000000000000000000000000000000000000000000008152600401610c419061126d565b60405180910390fd5b8181036000808673ffffffffffffffffffffffffffffffffffffffff1673ffffffffffffffffffffffffffffffffffffffff16815260200190815260200160002081905550816000808573ffffffffffffffffffffffffffffffffffffffff1673ffffffffffffffffffffffffffffffffffffffff168152602001908152602001600020600082825401925050819055508273ffffffffffffffffffffffffffffffffffffffff168473ffffffffffffffffffffffffffffffffffffffff167fddf252ad1be2c89b69c2b068fc378daa952ba7f163c4a11628f55a4df523b3ef84604051610d38919061134d565b60405180910390a3610d4b848484610ec3565b50505050565b60008183610d5f919061139f565b905092915050565b600073ffffffffffffffffffffffffffffffffffffffff168273ffffffffffffffffffffffffffffffffffffffff161415610dd7576040517f08c379a0000000000000000000000000000000000000000000000000000000008152600401610dce9061132d565b60405180910390fd5b610de360008383610ebe565b8060026000828254610df5919061139f565b92505081905550806000808473ffffffffffffffffffffffffffffffffffffffff1673ffffffffffffffffffffffffffffffffffffffff168152602001908152602001600020600082825401925050819055508173ffffffffffffffffffffffffffffffffffffffff16600073ffffffffffffffffffffffffffffffffffffffff167fddf252ad1be2c89b69c2b068fc378daa952ba7f163c4a11628f55a4df523b3ef83604051610ea6919061134d565b60405180910390a3610eba60008383610ec3565b5050565b505050565b505050565b600081359050610ed78161179c565b92915050565b600081359050610eec816117b3565b92915050565b600060208284031215610f0457600080fd5b6000610f1284828501610ec8565b91505092915050565b60008060408385031215610f2e57600080fd5b6000610f3c85828601610ec8565b9250506020610f4d85828601610ec8565b9150509250929050565b600080600060608486031215610f6c57600080fd5b6000610f7a86828701610ec8565b9350506020610f8b86828701610ec8565b9250506040610f9c86828701610edd565b9150509250925092565b60008060408385031215610fb957600080fd5b6000610fc785828601610ec8565b9250506020610fd885828601610edd565b9150509250929050565b610feb816113f5565b82525050565b610ffa81611407565b82525050565b600061100b82611383565b611015818561138e565b935061102581856020860161144a565b61102e8161150d565b840191505092915050565b600061104660238361138e565b91506110518261151e565b604082019050919050565b600061106960228361138e565b91506110748261156d565b604082019050919050565b600061108c601d8361138e565b9150611097826115bc565b602082019050919050565b60006110af60268361138e565b91506110ba826115e5565b604082019050919050565b60006110d2601d8361138e565b91506110dd82611634565b602082019050919050565b60006110f560258361138e565b91506111008261165d565b604082019050919050565b600061111860248361138e565b9150611123826116ac565b604082019050919050565b600061113b601a8361138e565b9150611146826116fb565b602082019050919050565b600061115e60258361138e565b915061116982611724565b604082019050919050565b6000611181601f8361138e565b915061118c82611773565b602082019050919050565b6111a081611433565b82525050565b6111af8161143d565b82525050565b60006020820190506111ca6000830184610fe2565b92915050565b60006020820190506111e56000830184610ff1565b92915050565b600060208201905081810360008301526112058184611000565b905092915050565b6000602082019050818103600083015261122681611039565b9050919050565b600060208201905081810360008301526112468161105c565b9050919050565b600060208201905081810360008301526112668161107f565b9050919050565b60006020820190508181036000830152611286816110a2565b9050919050565b600060208201905081810360008301526112a6816110c5565b9050919050565b600060208201905081810360008301526112c6816110e8565b9050919050565b600060208201905081810360008301526112e68161110b565b9050919050565b600060208201905081810360008301526113068161112e565b9050919050565b6000602082019050818103600083015261132681611151565b9050919050565b6000602082019050818103600083015261134681611174565b9050919050565b60006020820190506113626000830184611197565b92915050565b600060208201905061137d60008301846111a6565b92915050565b600081519050919050565b600082825260208201905092915050565b60006113aa82611433565b91506113b583611433565b9250827fffffffffffffffffffffffffffffffffffffffffffffffffffffffffffffffff038211156113ea576113e96114af565b5b828201905092915050565b600061140082611413565b9050919050565b60008115159050919050565b600073ffffffffffffffffffffffffffffffffffffffff82169050919050565b6000819050919050565b600060ff82169050919050565b60005b8381101561146857808201518184015260208101905061144d565b83811115611477576000848401525b50505050565b6000600282049050600182168061149557607f821691505b602082108114156114a9576114a86114de565b5b50919050565b7f4e487b7100000000000000000000000000000000000000000000000000000000600052601160045260246000fd5b7f4e487b7100000000000000000000000000000000000000000000000000000000600052602260045260246000fd5b6000601f19601f8301169050919050565b7f45524332303a207472616e7366657220746f20746865207a65726f206164647260008201527f6573730000000000000000000000000000000000000000000000000000000000602082015250565b7f45524332303a20617070726f766520746f20746865207a65726f20616464726560008201527f7373000000000000000000000000000000000000000000000000000000000000602082015250565b7f45524332303a20696e73756666696369656e7420616c6c6f77616e6365000000600082015250565b7f45524332303a207472616e7366657220616d6f756e742065786365656473206260008201527f616c616e63650000000000000000000000000000000000000000000000000000602082015250565b7f6f6e6c7920676f7665726e616e63652063616e2063616c6c2074686973000000600082015250565b7f45524332303a207472616e736665722066726f6d20746865207a65726f20616460008201527f6472657373000000000000000000000000000000000000000000000000000000602082015250565b7f45524332303a20617070726f76652066726f6d20746865207a65726f2061646460008201527f7265737300000000000000000000000000000000000000000000000000000000602082015250565b7f61626f7665206d6178546f74616c537570706c79206c696d6974000000000000600082015250565b7f45524332303a2064656372656173656420616c6c6f77616e63652062656c6f7760008201527f207a65726f000000000000000000000000000000000000000000000000000000602082015250565b7f45524332303a206d696e7420746f20746865207a65726f206164647265737300600082015250565b6117a5816113f5565b81146117b057600080fd5b50565b6117bc81611433565b81146117c757600080fd5b5056fea2646970667358221220813a619540e43c2401ce30990f20327d92f8d7f18683f00198ab29434be0a9bc64736f6c63430008010033",
  "linkReferences": {},
  "deployedLinkReferences": {}
}