{
  "_format": "hh-sol-artifact-1",
  "contractName": "Marketplace",
  "sourceName": "eth/contracts/Marketplace.sol",
  "abi": [
    {
      "inputs": [],
      "stateMutability": "nonpayable",
      "type": "constructor"
    },
    {
      "inputs": [],
      "name": "availableTokens",
      "outputs": [
        {
          "internalType": "uint256",
          "name": "",
          "type": "uint256"
        }
      ],
      "stateMutability": "view",
      "type": "function"
    },
    {
      "inputs": [
        {
          "internalType": "address",
          "name": "_address",
          "type": "address"
        },
        {
          "internalType": "address",
          "name": "_account",
          "type": "address"
        }
      ],
      "name": "balanceOf",
      "outputs": [
        {
          "internalType": "uint256",
          "name": "",
          "type": "uint256"
        }
      ],
      "stateMutability": "view",
      "type": "function"
    },
    {
      "inputs": [
        {
          "internalType": "address",
          "name": "toAddress",
          "type": "address"
        },
        {
          "internalType": "uint256",
          "name": "amount",
          "type": "uint256"
        }
      ],
      "name": "buyCoin",
      "outputs": [],
      "stateMutability": "nonpayable",
      "type": "function"
    },
    {
      "inputs": [
        {
          "internalType": "address",
          "name": "_address",
          "type": "address"
        },
        {
          "internalType": "uint256",
          "name": "_tokenId",
          "type": "uint256"
        },
        {
          "internalType": "address",
          "name": "_toAddress",
          "type": "address"
        },
        {
          "internalType": "string",
          "name": "_assets",
          "type": "string"
        }
      ],
      "name": "buyNft",
      "outputs": [],
      "stateMutability": "nonpayable",
      "type": "function"
    },
    {
      "inputs": [
        {
          "internalType": "address",
          "name": "",
          "type": "address"
        }
      ],
      "name": "coinSales",
      "outputs": [
        {
          "internalType": "address",
          "name": "investor",
          "type": "address"
        },
        {
          "internalType": "uint256",
          "name": "amount",
          "type": "uint256"
        },
        {
          "internalType": "bool",
          "name": "withdrawn",
          "type": "bool"
        }
      ],
      "stateMutability": "view",
      "type": "function"
    },
    {
      "inputs": [
        {
          "internalType": "address",
          "name": "_address",
          "type": "address"
        },
        {
          "internalType": "uint256",
          "name": "_price",
          "type": "uint256"
        },
        {
          "internalType": "uint256",
          "name": "_availableTokens",
          "type": "uint256"
        }
      ],
      "name": "createCoinSale",
      "outputs": [],
      "stateMutability": "nonpayable",
      "type": "function"
    },
    {
      "inputs": [
        {
          "internalType": "address",
          "name": "_address",
          "type": "address"
        },
        {
          "internalType": "uint256",
          "name": "_price",
          "type": "uint256"
        },
        {
          "internalType": "uint256",
          "name": "_assets",
          "type": "uint256"
        }
      ],
      "name": "createNftSale",
      "outputs": [],
      "stateMutability": "nonpayable",
      "type": "function"
    },
    {
      "inputs": [],
      "name": "governance",
      "outputs": [
        {
          "internalType": "address",
          "name": "",
          "type": "address"
        }
      ],
      "stateMutability": "view",
      "type": "function"
    },
    {
      "inputs": [
        {
          "internalType": "address",
          "name": "_address",
          "type": "address"
        },
        {
          "internalType": "uint256",
          "name": "_count",
          "type": "uint256"
        }
      ],
      "name": "mintNft",
      "outputs": [],
      "stateMutability": "nonpayable",
      "type": "function"
    },
    {
      "inputs": [
        {
          "internalType": "address",
          "name": "",
          "type": "address"
        }
      ],
      "name": "nftSaleTokenId",
      "outputs": [
        {
          "internalType": "uint256",
          "name": "",
          "type": "uint256"
        }
      ],
      "stateMutability": "view",
      "type": "function"
    },
    {
      "inputs": [
        {
          "internalType": "address",
          "name": "",
          "type": "address"
        },
        {
          "internalType": "uint256",
          "name": "",
          "type": "uint256"
        }
      ],
      "name": "nftSales",
      "outputs": [
        {
          "internalType": "uint256",
          "name": "tokenId",
          "type": "uint256"
        },
        {
          "internalType": "address",
          "name": "owner",
          "type": "address"
        },
        {
          "internalType": "uint256",
          "name": "price",
          "type": "uint256"
        },
        {
          "internalType": "uint256",
          "name": "assets",
          "type": "uint256"
        },
        {
          "internalType": "bool",
          "name": "sold",
          "type": "bool"
        },
        {
          "internalType": "bool",
          "name": "withdrawn",
          "type": "bool"
        }
      ],
      "stateMutability": "view",
      "type": "function"
    },
    {
      "inputs": [
        {
          "internalType": "address",
          "name": "_address",
          "type": "address"
        },
        {
          "internalType": "address",
          "name": "_from",
          "type": "address"
        },
        {
          "internalType": "uint256",
          "name": "_tokenId",
          "type": "uint256"
        },
        {
          "internalType": "bytes",
          "name": "",
          "type": "bytes"
        }
      ],
      "name": "onERC721Received",
      "outputs": [
        {
          "internalType": "bytes4",
          "name": "",
          "type": "bytes4"
        }
      ],
      "stateMutability": "nonpayable",
      "type": "function"
    },
    {
      "inputs": [],
      "name": "price",
      "outputs": [
        {
          "internalType": "uint256",
          "name": "",
          "type": "uint256"
        }
      ],
      "stateMutability": "view",
      "type": "function"
    },
    {
      "inputs": [],
      "name": "token",
      "outputs": [
        {
          "internalType": "contract MainToken",
          "name": "",
          "type": "address"
        }
      ],
      "stateMutability": "view",
      "type": "function"
    },
    {
      "inputs": [
        {
          "internalType": "address",
          "name": "_address",
          "type": "address"
        },
        {
          "internalType": "uint256",
          "name": "_tokenId",
          "type": "uint256"
        },
        {
          "internalType": "uint256",
          "name": "_price",
          "type": "uint256"
        }
      ],
      "name": "updateNftPrice",
      "outputs": [],
      "stateMutability": "nonpayable",
      "type": "function"
    },
    {
      "inputs": [
        {
          "internalType": "uint256",
          "name": "_price",
          "type": "uint256"
        }
      ],
      "name": "updatePrice",
      "outputs": [
        {
          "internalType": "uint256",
          "name": "",
          "type": "uint256"
        }
      ],
      "stateMutability": "nonpayable",
      "type": "function"
    },
    {
      "inputs": [
        {
          "internalType": "address",
          "name": "fromAddress",
          "type": "address"
        },
        {
          "internalType": "uint256",
          "name": "amount",
          "type": "uint256"
        }
      ],
      "name": "useCoin",
      "outputs": [],
      "stateMutability": "nonpayable",
      "type": "function"
    },
    {
      "inputs": [
        {
          "internalType": "address",
          "name": "fromAddress",
          "type": "address"
        },
        {
          "internalType": "address",
          "name": "toAddress",
          "type": "address"
        }
      ],
      "name": "withdrawCoin",
      "outputs": [],
      "stateMutability": "nonpayable",
      "type": "function"
    },
    {
      "inputs": [
        {
          "internalType": "address",
          "name": "_address",
          "type": "address"
        },
        {
          "internalType": "uint256",
          "name": "_tokenId",
          "type": "uint256"
        },
        {
          "internalType": "address",
          "name": "_fromAddress",
          "type": "address"
        },
        {
          "internalType": "address",
          "name": "_toAddress",
          "type": "address"
        }
      ],
      "name": "withdrawNft",
      "outputs": [],
      "stateMutability": "nonpayable",
      "type": "function"
    }
  ],
  "bytecode": "0x608060405234801561001057600080fd5b50600160008190555033600160006101000a81548173ffffffffffffffffffffffffffffffffffffffff021916908373ffffffffffffffffffffffffffffffffffffffff160217905550612a59806100696000396000f3fe608060405234801561001057600080fd5b50600436106101215760003560e01c80637bfe4d8e116100ad578063d1194e2b11610071578063d1194e2b14610309578063e22aede714610325578063ec7cb71a14610341578063f7888aec14610373578063fc0c546a146103a357610121565b80637bfe4d8e1461023a5780638d6cc56d1461026a578063a035b1fe1461029a578063ab67f1cf146102b8578063b2dc1d99146102ed57610121565b80634ebe43dc116100f45780634ebe43dc146101aa578063553e0fec146101c65780635aa6e675146101e2578063634d0d501461020057806369bb4dc21461021c57610121565b806304a95e2114610126578063150b7a02146101425780631f859305146101725780633f7118511461018e575b600080fd5b610140600480360381019061013b9190611fa9565b6103c1565b005b61015c60048036038101906101579190611eed565b610629565b6040516101699190612389565b60405180910390f35b61018c60048036038101906101879190611f6d565b61073c565b005b6101a860048036038101906101a39190611f6d565b610973565b005b6101c460048036038101906101bf919061200c565b610b44565b005b6101e060048036038101906101db9190611eb1565b610dcc565b005b6101ea610fbf565b6040516101f791906122a7565b60405180910390f35b61021a60048036038101906102159190612087565b610fe5565b005b6102246110e2565b604051610231919061247f565b60405180910390f35b610254600480360381019061024f9190611e88565b6110e8565b604051610261919061247f565b60405180910390f35b610284600480360381019061027f91906120ff565b611100565b604051610291919061247f565b60405180910390f35b6102a26111a3565b6040516102af919061247f565b60405180910390f35b6102d260048036038101906102cd9190611f6d565b6111a9565b6040516102e4969594939291906124c3565b60405180910390f35b61030760048036038101906103029190612087565b61122c565b005b610323600480360381019061031e9190611f6d565b6116d7565b005b61033f600480360381019061033a9190612087565b61180f565b005b61035b60048036038101906103569190611e88565b611b20565b60405161036a93929190612352565b60405180910390f35b61038d60048036038101906103889190611eb1565b611b77565b60405161039a919061247f565b60405180910390f35b6103ab611d02565b6040516103b891906123a4565b60405180910390f35b6103c9611d28565b600160009054906101000a900473ffffffffffffffffffffffffffffffffffffffff1673ffffffffffffffffffffffffffffffffffffffff163373ffffffffffffffffffffffffffffffffffffffff1614610459576040517f08c379a0000000000000000000000000000000000000000000000000000000008152600401610450906123ff565b60405180910390fd5b8173ffffffffffffffffffffffffffffffffffffffff16600660008673ffffffffffffffffffffffffffffffffffffffff1673ffffffffffffffffffffffffffffffffffffffff168152602001908152602001600020600085815260200190815260200160002060010160009054906101000a900473ffffffffffffffffffffffffffffffffffffffff1673ffffffffffffffffffffffffffffffffffffffff161461053a576040517f08c379a0000000000000000000000000000000000000000000000000000000008152600401610531906123df565b60405180910390fd5b60008490508073ffffffffffffffffffffffffffffffffffffffff166323b872dd3084876040518463ffffffff1660e01b815260040161057c939291906122c2565b600060405180830381600087803b15801561059657600080fd5b505af11580156105aa573d6000803e3d6000fd5b505050506001600660008773ffffffffffffffffffffffffffffffffffffffff1673ffffffffffffffffffffffffffffffffffffffff168152602001908152602001600020600086815260200190815260200160002060040160016101000a81548160ff02191690831515021790555050610623611d78565b50505050565b600084600660008873ffffffffffffffffffffffffffffffffffffffff1673ffffffffffffffffffffffffffffffffffffffff168152602001908152602001600020600086815260200190815260200160002060010160006101000a81548173ffffffffffffffffffffffffffffffffffffffff021916908373ffffffffffffffffffffffffffffffffffffffff1602179055506000600660008873ffffffffffffffffffffffffffffffffffffffff1673ffffffffffffffffffffffffffffffffffffffff168152602001908152602001600020600086815260200190815260200160002060040160016101000a81548160ff02191690831515021790555063f0b9e5ba60e01b905095945050505050565b610744611d28565b600160009054906101000a900473ffffffffffffffffffffffffffffffffffffffff1673ffffffffffffffffffffffffffffffffffffffff163373ffffffffffffffffffffffffffffffffffffffff16146107d4576040517f08c379a00000000000000000000000000000000000000000000000000000000081526004016107cb906123ff565b60405180910390fd5b600354811115610819576040517f08c379a00000000000000000000000000000000000000000000000000000000081526004016108109061241f565b60405180910390fd5b600081600560008573ffffffffffffffffffffffffffffffffffffffff1673ffffffffffffffffffffffffffffffffffffffff168152602001908152602001600020600101546108699190612596565b905060405180606001604052808473ffffffffffffffffffffffffffffffffffffffff16815260200182815260200160001515815250600560008573ffffffffffffffffffffffffffffffffffffffff1673ffffffffffffffffffffffffffffffffffffffff16815260200190815260200160002060008201518160000160006101000a81548173ffffffffffffffffffffffffffffffffffffffff021916908373ffffffffffffffffffffffffffffffffffffffff1602179055506020820151816001015560408201518160020160006101000a81548160ff0219169083151502179055509050508160035461096091906126ae565b6003819055505061096f611d78565b5050565b61097b611d28565b600160009054906101000a900473ffffffffffffffffffffffffffffffffffffffff1673ffffffffffffffffffffffffffffffffffffffff163373ffffffffffffffffffffffffffffffffffffffff1614610a0b576040517f08c379a0000000000000000000000000000000000000000000000000000000008152600401610a02906123ff565b60405180910390fd5b600560008373ffffffffffffffffffffffffffffffffffffffff1673ffffffffffffffffffffffffffffffffffffffff16815260200190815260200160002060010154811115610a90576040517f08c379a0000000000000000000000000000000000000000000000000000000008152600401610a879061243f565b60405180910390fd5b80600560008473ffffffffffffffffffffffffffffffffffffffff1673ffffffffffffffffffffffffffffffffffffffff16815260200190815260200160002060010154610ade91906126ae565b600560008473ffffffffffffffffffffffffffffffffffffffff1673ffffffffffffffffffffffffffffffffffffffff1681526020019081526020016000206001018190555080600354610b329190612596565b600381905550610b40611d78565b5050565b610b4c611d28565b600160009054906101000a900473ffffffffffffffffffffffffffffffffffffffff1673ffffffffffffffffffffffffffffffffffffffff163373ffffffffffffffffffffffffffffffffffffffff1614610bdc576040517f08c379a0000000000000000000000000000000000000000000000000000000008152600401610bd3906123ff565b60405180910390fd5b81600660008673ffffffffffffffffffffffffffffffffffffffff1673ffffffffffffffffffffffffffffffffffffffff168152602001908152602001600020600085815260200190815260200160002060010160006101000a81548173ffffffffffffffffffffffffffffffffffffffff021916908373ffffffffffffffffffffffffffffffffffffffff1602179055506001600660008673ffffffffffffffffffffffffffffffffffffffff1673ffffffffffffffffffffffffffffffffffffffff168152602001908152602001600020600085815260200190815260200160002060040160006101000a81548160ff021916908315150217905550600183610ce79190612596565b600760008673ffffffffffffffffffffffffffffffffffffffff1673ffffffffffffffffffffffffffffffffffffffff1681526020019081526020016000208190555060008490508073ffffffffffffffffffffffffffffffffffffffff1663d0def52130846040518363ffffffff1660e01b8152600401610d6a9291906122f9565b602060405180830381600087803b158015610d8457600080fd5b505af1158015610d98573d6000803e3d6000fd5b505050506040513d601f19601f82011682018060405250810190610dbc9190612128565b5050610dc6611d78565b50505050565b610dd4611d28565b600160009054906101000a900473ffffffffffffffffffffffffffffffffffffffff1673ffffffffffffffffffffffffffffffffffffffff163373ffffffffffffffffffffffffffffffffffffffff1614610e64576040517f08c379a0000000000000000000000000000000000000000000000000000000008152600401610e5b906123ff565b60405180910390fd5b600460009054906101000a900473ffffffffffffffffffffffffffffffffffffffff1673ffffffffffffffffffffffffffffffffffffffff166323b872dd3083600560008773ffffffffffffffffffffffffffffffffffffffff1673ffffffffffffffffffffffffffffffffffffffff168152602001908152602001600020600101546040518463ffffffff1660e01b8152600401610f05939291906122c2565b602060405180830381600087803b158015610f1f57600080fd5b505af1158015610f33573d6000803e3d6000fd5b505050506040513d601f19601f82011682018060405250810190610f5791906120d6565b506001600560008473ffffffffffffffffffffffffffffffffffffffff1673ffffffffffffffffffffffffffffffffffffffff16815260200190815260200160002060020160006101000a81548160ff021916908315150217905550610fbb611d78565b5050565b600160009054906101000a900473ffffffffffffffffffffffffffffffffffffffff1681565b610fed611d28565b600160009054906101000a900473ffffffffffffffffffffffffffffffffffffffff1673ffffffffffffffffffffffffffffffffffffffff163373ffffffffffffffffffffffffffffffffffffffff161461107d576040517f08c379a0000000000000000000000000000000000000000000000000000000008152600401611074906123ff565b60405180910390fd5b80600660008573ffffffffffffffffffffffffffffffffffffffff1673ffffffffffffffffffffffffffffffffffffffff1681526020019081526020016000206000848152602001908152602001600020600201819055506110dd611d78565b505050565b60035481565b60076020528060005260406000206000915090505481565b6000600160009054906101000a900473ffffffffffffffffffffffffffffffffffffffff1673ffffffffffffffffffffffffffffffffffffffff163373ffffffffffffffffffffffffffffffffffffffff1614611192576040517f08c379a0000000000000000000000000000000000000000000000000000000008152600401611189906123ff565b60405180910390fd5b816002819055506002549050919050565b60025481565b6006602052816000526040600020602052806000526040600020600091509150508060000154908060010160009054906101000a900473ffffffffffffffffffffffffffffffffffffffff16908060020154908060030154908060040160009054906101000a900460ff16908060040160019054906101000a900460ff16905086565b611234611d28565b600160009054906101000a900473ffffffffffffffffffffffffffffffffffffffff1673ffffffffffffffffffffffffffffffffffffffff163373ffffffffffffffffffffffffffffffffffffffff16146112c4576040517f08c379a00000000000000000000000000000000000000000000000000000000081526004016112bb906123ff565b60405180910390fd5b60008390506000600190508173ffffffffffffffffffffffffffffffffffffffff166354840c6e6040518163ffffffff1660e01b815260040160206040518083038186803b15801561131557600080fd5b505afa158015611329573d6000803e3d6000fd5b505050506040513d601f19601f8201168201806040525081019061134d91906120d6565b1561147d57600460009054906101000a900473ffffffffffffffffffffffffffffffffffffffff1673ffffffffffffffffffffffffffffffffffffffff16632ab4d0526040518163ffffffff1660e01b815260040160206040518083038186803b1580156113ba57600080fd5b505afa1580156113ce573d6000803e3d6000fd5b505050506040513d601f19601f820116820180604052508101906113f29190612128565b6003670de0b6b3a7640000866114089190612654565b6114129190612654565b61141c9190612623565b6002546114299190612596565b600281905550600390506004600760008773ffffffffffffffffffffffffffffffffffffffff1673ffffffffffffffffffffffffffffffffffffffff1681526020019081526020016000208190555061154f565b600460009054906101000a900473ffffffffffffffffffffffffffffffffffffffff1673ffffffffffffffffffffffffffffffffffffffff16632ab4d0526040518163ffffffff1660e01b815260040160206040518083038186803b1580156114e557600080fd5b505afa1580156114f9573d6000803e3d6000fd5b505050506040513d601f19601f8201168201806040525081019061151d9190612128565b670de0b6b3a7640000856115319190612654565b61153b9190612623565b6002546115489190612596565b6002819055505b60005b818160ff1610156116c757600060018261156c91906125ec565b60ff1690506040518060c00160405280828152602001600073ffffffffffffffffffffffffffffffffffffffff16815260200187815260200186815260200160001515815260200160001515815250600660008973ffffffffffffffffffffffffffffffffffffffff1673ffffffffffffffffffffffffffffffffffffffff16815260200190815260200160002060008381526020019081526020016000206000820151816000015560208201518160010160006101000a81548173ffffffffffffffffffffffffffffffffffffffff021916908373ffffffffffffffffffffffffffffffffffffffff160217905550604082015181600201556060820151816003015560808201518160040160006101000a81548160ff02191690831515021790555060a08201518160040160016101000a81548160ff0219169083151502179055509050505080806116bf906127fa565b915050611552565b5050506116d2611d78565b505050565b6116df611d28565b600160009054906101000a900473ffffffffffffffffffffffffffffffffffffffff1673ffffffffffffffffffffffffffffffffffffffff163373ffffffffffffffffffffffffffffffffffffffff161461176f576040517f08c379a0000000000000000000000000000000000000000000000000000000008152600401611766906123ff565b60405180910390fd5b60008290508073ffffffffffffffffffffffffffffffffffffffff1663c2f637dc83306040518363ffffffff1660e01b81526004016117af92919061249a565b602060405180830381600087803b1580156117c957600080fd5b505af11580156117dd573d6000803e3d6000fd5b505050506040513d601f19601f820116820180604052508101906118019190612128565b505061180b611d78565b5050565b600160009054906101000a900473ffffffffffffffffffffffffffffffffffffffff1673ffffffffffffffffffffffffffffffffffffffff163373ffffffffffffffffffffffffffffffffffffffff161461189f576040517f08c379a0000000000000000000000000000000000000000000000000000000008152600401611896906123ff565b60405180910390fd5b82600460006101000a81548173ffffffffffffffffffffffffffffffffffffffff021916908373ffffffffffffffffffffffffffffffffffffffff16021790555060008111801561198f5750600460009054906101000a900473ffffffffffffffffffffffffffffffffffffffff1673ffffffffffffffffffffffffffffffffffffffff16632ab4d0526040518163ffffffff1660e01b815260040160206040518083038186803b15801561195357600080fd5b505afa158015611967573d6000803e3d6000fd5b505050506040513d601f19601f8201168201806040525081019061198b9190612128565b8111155b6119ce576040517f08c379a00000000000000000000000000000000000000000000000000000000081526004016119c5906123bf565b60405180910390fd5b600460009054906101000a900473ffffffffffffffffffffffffffffffffffffffff1673ffffffffffffffffffffffffffffffffffffffff166340c10f1930836040518363ffffffff1660e01b8152600401611a2b929190612329565b600060405180830381600087803b158015611a4557600080fd5b505af1158015611a59573d6000803e3d6000fd5b50505050600460009054906101000a900473ffffffffffffffffffffffffffffffffffffffff1673ffffffffffffffffffffffffffffffffffffffff1663095ea7b330836040518363ffffffff1660e01b8152600401611aba929190612329565b602060405180830381600087803b158015611ad457600080fd5b505af1158015611ae8573d6000803e3d6000fd5b505050506040513d601f19601f82011682018060405250810190611b0c91906120d6565b508160028190555080600381905550505050565b60056020528060005260406000206000915090508060000160009054906101000a900473ffffffffffffffffffffffffffffffffffffffff16908060010154908060020160009054906101000a900460ff16905083565b60008060005b600760008673ffffffffffffffffffffffffffffffffffffffff1673ffffffffffffffffffffffffffffffffffffffff168152602001908152602001600020548160ff1611611cf7578373ffffffffffffffffffffffffffffffffffffffff16600660008773ffffffffffffffffffffffffffffffffffffffff1673ffffffffffffffffffffffffffffffffffffffff16815260200190815260200160002060008360ff16815260200190815260200160002060010160009054906101000a900473ffffffffffffffffffffffffffffffffffffffff1673ffffffffffffffffffffffffffffffffffffffff16148015611cd85750600660008673ffffffffffffffffffffffffffffffffffffffff1673ffffffffffffffffffffffffffffffffffffffff16815260200190815260200160002060008260ff16815260200190815260200160002060040160019054906101000a900460ff16155b15611ce4578060ff1691505b8080611cef906127fa565b915050611b7d565b508091505092915050565b600460009054906101000a900473ffffffffffffffffffffffffffffffffffffffff1681565b60026000541415611d6e576040517f08c379a0000000000000000000000000000000000000000000000000000000008152600401611d659061245f565b60405180910390fd5b6002600081905550565b6001600081905550565b6000611d95611d9084612549565b612524565b905082815260208101848484011115611dad57600080fd5b611db8848285612787565b509392505050565b600081359050611dcf816129de565b92915050565b600081519050611de4816129f5565b92915050565b60008083601f840112611dfc57600080fd5b8235905067ffffffffffffffff811115611e1557600080fd5b602083019150836001820283011115611e2d57600080fd5b9250929050565b600082601f830112611e4557600080fd5b8135611e55848260208601611d82565b91505092915050565b600081359050611e6d81612a0c565b92915050565b600081519050611e8281612a0c565b92915050565b600060208284031215611e9a57600080fd5b6000611ea884828501611dc0565b91505092915050565b60008060408385031215611ec457600080fd5b6000611ed285828601611dc0565b9250506020611ee385828601611dc0565b9150509250929050565b600080600080600060808688031215611f0557600080fd5b6000611f1388828901611dc0565b9550506020611f2488828901611dc0565b9450506040611f3588828901611e5e565b935050606086013567ffffffffffffffff811115611f5257600080fd5b611f5e88828901611dea565b92509250509295509295909350565b60008060408385031215611f8057600080fd5b6000611f8e85828601611dc0565b9250506020611f9f85828601611e5e565b9150509250929050565b60008060008060808587031215611fbf57600080fd5b6000611fcd87828801611dc0565b9450506020611fde87828801611e5e565b9350506040611fef87828801611dc0565b925050606061200087828801611dc0565b91505092959194509250565b6000806000806080858703121561202257600080fd5b600061203087828801611dc0565b945050602061204187828801611e5e565b935050604061205287828801611dc0565b925050606085013567ffffffffffffffff81111561206f57600080fd5b61207b87828801611e34565b91505092959194509250565b60008060006060848603121561209c57600080fd5b60006120aa86828701611dc0565b93505060206120bb86828701611e5e565b92505060406120cc86828701611e5e565b9150509250925092565b6000602082840312156120e857600080fd5b60006120f684828501611dd5565b91505092915050565b60006020828403121561211157600080fd5b600061211f84828501611e5e565b91505092915050565b60006020828403121561213a57600080fd5b600061214884828501611e73565b91505092915050565b61215a816126e2565b82525050565b612169816126f4565b82525050565b61217881612700565b82525050565b61218781612763565b82525050565b60006121988261257a565b6121a28185612585565b93506121b2818560208601612796565b6121bb816128b1565b840191505092915050565b60006121d3603483612585565b91506121de826128c2565b604082019050919050565b60006121f6601783612585565b915061220182612911565b602082019050919050565b6000612219601d83612585565b91506122248261293a565b602082019050919050565b600061223c601f83612585565b915061224782612963565b602082019050919050565b600061225f601183612585565b915061226a8261298c565b602082019050919050565b6000612282601f83612585565b915061228d826129b5565b602082019050919050565b6122a18161274c565b82525050565b60006020820190506122bc6000830184612151565b92915050565b60006060820190506122d76000830186612151565b6122e46020830185612151565b6122f16040830184612298565b949350505050565b600060408201905061230e6000830185612151565b8181036020830152612320818461218d565b90509392505050565b600060408201905061233e6000830185612151565b61234b6020830184612298565b9392505050565b60006060820190506123676000830186612151565b6123746020830185612298565b6123816040830184612160565b949350505050565b600060208201905061239e600083018461216f565b92915050565b60006020820190506123b9600083018461217e565b92915050565b600060208201905081810360008301526123d8816121c6565b9050919050565b600060208201905081810360008301526123f8816121e9565b9050919050565b600060208201905081810360008301526124188161220c565b9050919050565b600060208201905081810360008301526124388161222f565b9050919050565b6000602082019050818103600083015261245881612252565b9050919050565b6000602082019050818103600083015261247881612275565b9050919050565b60006020820190506124946000830184612298565b92915050565b60006040820190506124af6000830185612298565b6124bc6020830184612151565b9392505050565b600060c0820190506124d86000830189612298565b6124e56020830188612151565b6124f26040830187612298565b6124ff6060830186612298565b61250c6080830185612160565b61251960a0830184612160565b979650505050505050565b600061252e61253f565b905061253a82826127c9565b919050565b6000604051905090565b600067ffffffffffffffff82111561256457612563612882565b5b61256d826128b1565b9050602081019050919050565b600081519050919050565b600082825260208201905092915050565b60006125a18261274c565b91506125ac8361274c565b9250827fffffffffffffffffffffffffffffffffffffffffffffffffffffffffffffffff038211156125e1576125e0612824565b5b828201905092915050565b60006125f782612756565b915061260283612756565b92508260ff0382111561261857612617612824565b5b828201905092915050565b600061262e8261274c565b91506126398361274c565b92508261264957612648612853565b5b828204905092915050565b600061265f8261274c565b915061266a8361274c565b9250817fffffffffffffffffffffffffffffffffffffffffffffffffffffffffffffffff04831182151516156126a3576126a2612824565b5b828202905092915050565b60006126b98261274c565b91506126c48361274c565b9250828210156126d7576126d6612824565b5b828203905092915050565b60006126ed8261272c565b9050919050565b60008115159050919050565b60007fffffffff0000000000000000000000000000000000000000000000000000000082169050919050565b600073ffffffffffffffffffffffffffffffffffffffff82169050919050565b6000819050919050565b600060ff82169050919050565b600061276e82612775565b9050919050565b60006127808261272c565b9050919050565b82818337600083830152505050565b60005b838110156127b4578082015181840152602081019050612799565b838111156127c3576000848401525b50505050565b6127d2826128b1565b810181811067ffffffffffffffff821117156127f1576127f0612882565b5b80604052505050565b600061280582612756565b915060ff82141561281957612818612824565b5b600182019050919050565b7f4e487b7100000000000000000000000000000000000000000000000000000000600052601160045260246000fd5b7f4e487b7100000000000000000000000000000000000000000000000000000000600052601260045260246000fd5b7f4e487b7100000000000000000000000000000000000000000000000000000000600052604160045260246000fd5b6000601f19601f8301169050919050565b7f5f617661696c61626c65546f6b656e732073686f756c64206265203e2030206160008201527f6e64203c3d206d6178546f74616c537570706c79000000000000000000000000602082015250565b7f596f7520617265206e6f7420746f6b656e206f776e6572000000000000000000600082015250565b7f6f6e6c7920676f7665726e616e63652063616e2063616c6c2074686973000000600082015250565b7f4e6f7420656e6f75676820746f6b656e73206c65667420666f722073616c6500600082015250565b7f4e6f7420656e6f75676820746f6b656e73000000000000000000000000000000600082015250565b7f5265656e7472616e637947756172643a207265656e7472616e742063616c6c00600082015250565b6129e7816126e2565b81146129f257600080fd5b50565b6129fe816126f4565b8114612a0957600080fd5b50565b612a158161274c565b8114612a2057600080fd5b5056fea2646970667358221220b97f7dfc9e061e060e8a59fc40d7fcbd7c4e45185f7f67633bbd57395c1f517d64736f6c63430008010033",
  "linkReferences": {},
  "deployedLinkReferences": {}
}